{
  "_format": "hh-sol-artifact-1",
  "contractName": "eBookRenting",
  "sourceName": "contracts/eBookRenting.sol",
  "abi": [
    {
      "inputs": [
        {
          "internalType": "contract ISuperfluid",
          "name": "host",
          "type": "address"
        },
        {
          "internalType": "contract IConstantFlowAgreementV1",
          "name": "cfa",
          "type": "address"
        },
        {
          "internalType": "contract ISuperToken",
          "name": "acceptedToken",
          "type": "address"
        }
      ],
      "stateMutability": "nonpayable",
      "type": "constructor"
    },
    {
      "inputs": [
        {
          "internalType": "uint256",
          "name": "bookID",
          "type": "uint256"
        },
        {
          "internalType": "address",
          "name": "reader",
          "type": "address"
        }
      ],
      "name": "BookNotOwnedInShelf",
      "type": "error"
    },
    {
      "inputs": [
        {
          "internalType": "uint256",
          "name": "bookID",
          "type": "uint256"
        },
        {
          "internalType": "address",
          "name": "reader",
          "type": "address"
        }
      ],
      "name": "BookNotRentedInShelf",
      "type": "error"
    },
    {
      "inputs": [
        {
          "internalType": "address",
          "name": "StorageStructuresContractAddress",
          "type": "address"
        }
      ],
      "name": "_setSS",
      "outputs": [],
      "stateMutability": "nonpayable",
      "type": "function"
    },
    {
      "inputs": [
        {
          "internalType": "contract ISuperToken",
          "name": "_superToken",
          "type": "address"
        },
        {
          "internalType": "address",
          "name": "_agreementClass",
          "type": "address"
        },
        {
          "internalType": "bytes32",
          "name": "",
          "type": "bytes32"
        },
        {
          "internalType": "bytes",
          "name": "",
          "type": "bytes"
        },
        {
          "internalType": "bytes",
          "name": "",
          "type": "bytes"
        },
        {
          "internalType": "bytes",
          "name": "_ctx",
          "type": "bytes"
        }
      ],
      "name": "afterAgreementCreated",
      "outputs": [
        {
          "internalType": "bytes",
          "name": "newCtx",
          "type": "bytes"
        }
      ],
      "stateMutability": "nonpayable",
      "type": "function"
    },
    {
      "inputs": [
        {
          "internalType": "contract ISuperToken",
          "name": "_superToken",
          "type": "address"
        },
        {
          "internalType": "address",
          "name": "_agreementClass",
          "type": "address"
        },
        {
          "internalType": "bytes32",
          "name": "",
          "type": "bytes32"
        },
        {
          "internalType": "bytes",
          "name": "",
          "type": "bytes"
        },
        {
          "internalType": "bytes",
          "name": "",
          "type": "bytes"
        },
        {
          "internalType": "bytes",
          "name": "_ctx",
          "type": "bytes"
        }
      ],
      "name": "afterAgreementTerminated",
      "outputs": [
        {
          "internalType": "bytes",
          "name": "newCtx",
          "type": "bytes"
        }
      ],
      "stateMutability": "nonpayable",
      "type": "function"
    },
    {
      "inputs": [
        {
          "internalType": "contract ISuperToken",
          "name": "",
          "type": "address"
        },
        {
          "internalType": "address",
          "name": "",
          "type": "address"
        },
        {
          "internalType": "bytes32",
          "name": "",
          "type": "bytes32"
        },
        {
          "internalType": "bytes",
          "name": "",
          "type": "bytes"
        },
        {
          "internalType": "bytes",
          "name": "",
          "type": "bytes"
        },
        {
          "internalType": "bytes",
          "name": "",
          "type": "bytes"
        }
      ],
      "name": "afterAgreementUpdated",
      "outputs": [
        {
          "internalType": "bytes",
          "name": "",
          "type": "bytes"
        }
      ],
      "stateMutability": "nonpayable",
      "type": "function"
    },
    {
      "inputs": [
        {
          "internalType": "contract ISuperToken",
          "name": "_superToken",
          "type": "address"
        },
        {
          "internalType": "address",
          "name": "_agreementClass",
          "type": "address"
        },
        {
          "internalType": "bytes32",
          "name": "",
          "type": "bytes32"
        },
        {
          "internalType": "bytes",
          "name": "",
          "type": "bytes"
        },
        {
          "internalType": "bytes",
          "name": "_ctx",
          "type": "bytes"
        }
      ],
      "name": "beforeAgreementCreated",
      "outputs": [
        {
          "internalType": "bytes",
          "name": "newCtx",
          "type": "bytes"
        }
      ],
      "stateMutability": "view",
      "type": "function"
    },
    {
      "inputs": [
        {
          "internalType": "contract ISuperToken",
          "name": "",
          "type": "address"
        },
        {
          "internalType": "address",
          "name": "",
          "type": "address"
        },
        {
          "internalType": "bytes32",
          "name": "",
          "type": "bytes32"
        },
        {
          "internalType": "bytes",
          "name": "",
          "type": "bytes"
        },
        {
          "internalType": "bytes",
          "name": "",
          "type": "bytes"
        }
      ],
      "name": "beforeAgreementTerminated",
      "outputs": [
        {
          "internalType": "bytes",
          "name": "",
          "type": "bytes"
        }
      ],
      "stateMutability": "view",
      "type": "function"
    },
    {
      "inputs": [
        {
          "internalType": "contract ISuperToken",
          "name": "",
          "type": "address"
        },
        {
          "internalType": "address",
          "name": "",
          "type": "address"
        },
        {
          "internalType": "bytes32",
          "name": "",
          "type": "bytes32"
        },
        {
          "internalType": "bytes",
          "name": "",
          "type": "bytes"
        },
        {
          "internalType": "bytes",
          "name": "",
          "type": "bytes"
        }
      ],
      "name": "beforeAgreementUpdated",
      "outputs": [
        {
          "internalType": "bytes",
          "name": "",
          "type": "bytes"
        }
      ],
      "stateMutability": "view",
      "type": "function"
    },
    {
      "inputs": [
        {
          "internalType": "uint256",
          "name": "bookID",
          "type": "uint256"
        }
      ],
      "name": "putBookForRent",
      "outputs": [],
      "stateMutability": "nonpayable",
      "type": "function"
    },
    {
      "inputs": [
        {
          "internalType": "uint256",
          "name": "bookID",
          "type": "uint256"
        }
      ],
      "name": "removeBookFromRent",
      "outputs": [],
      "stateMutability": "nonpayable",
      "type": "function"
    }
  ],
  "bytecode": "0x60806040526001600360146101000a81548160ff0219169083151502179055503480156200002c57600080fd5b50604051620038d8380380620038d8833981810160405281019062000052919062000369565b600073ffffffffffffffffffffffffffffffffffffffff168373ffffffffffffffffffffffffffffffffffffffff161415620000c5576040517f08c379a0000000000000000000000000000000000000000000000000000000008152600401620000bc9062000489565b60405180910390fd5b600073ffffffffffffffffffffffffffffffffffffffff168273ffffffffffffffffffffffffffffffffffffffff16141562000138576040517f08c379a00000000000000000000000000000000000000000000000000000000081526004016200012f9062000467565b60405180910390fd5b600073ffffffffffffffffffffffffffffffffffffffff168173ffffffffffffffffffffffffffffffffffffffff161415620001ab576040517f08c379a0000000000000000000000000000000000000000000000000000000008152600401620001a29062000445565b60405180910390fd5b82600160006101000a81548173ffffffffffffffffffffffffffffffffffffffff021916908373ffffffffffffffffffffffffffffffffffffffff16021790555081600260006101000a81548173ffffffffffffffffffffffffffffffffffffffff021916908373ffffffffffffffffffffffffffffffffffffffff16021790555080600360006101000a81548173ffffffffffffffffffffffffffffffffffffffff021916908373ffffffffffffffffffffffffffffffffffffffff160217905550600064100000000064080000000064040000000060011717179050600160009054906101000a900473ffffffffffffffffffffffffffffffffffffffff1673ffffffffffffffffffffffffffffffffffffffff1663ad3915c8826040518263ffffffff1660e01b8152600401620002e69190620004ab565b600060405180830381600087803b1580156200030157600080fd5b505af115801562000316573d6000803e3d6000fd5b50505050505050506200061c565b6000815190506200033581620005ce565b92915050565b6000815190506200034c81620005e8565b92915050565b600081519050620003638162000602565b92915050565b6000806000606084860312156200037f57600080fd5b60006200038f8682870162000352565b9350506020620003a28682870162000324565b9250506040620003b5868287016200033b565b9150509250925092565b6000620003ce601d83620004c8565b9150620003db8262000553565b602082019050919050565b6000620003f5601383620004c8565b915062000402826200057c565b602082019050919050565b60006200041c601483620004c8565b91506200042982620005a5565b602082019050919050565b6200043f8162000549565b82525050565b600060208201905081810360008301526200046081620003bf565b9050919050565b600060208201905081810360008301526200048281620003e6565b9050919050565b60006020820190508181036000830152620004a4816200040d565b9050919050565b6000602082019050620004c2600083018462000434565b92915050565b600082825260208201905092915050565b6000620004e68262000529565b9050919050565b6000620004fa82620004d9565b9050919050565b60006200050e82620004d9565b9050919050565b60006200052282620004d9565b9050919050565b600073ffffffffffffffffffffffffffffffffffffffff82169050919050565b6000819050919050565b7f6163636570746564546f6b656e206973207a65726f2061646472657373000000600082015250565b7f636661206973207a65726f206164647265737300000000000000000000000000600082015250565b7f686f7374206973207a65726f2061646472657373000000000000000000000000600082015250565b620005d981620004ed565b8114620005e557600080fd5b50565b620005f38162000501565b8114620005ff57600080fd5b50565b6200060d8162000515565b81146200061957600080fd5b50565b6132ac806200062c6000396000f3fe608060405234801561001057600080fd5b50600436106100935760003560e01c806359ea5a931161006657806359ea5a93146101445780635f9e7d7714610160578063884d1f4014610190578063cefe3f81146101c0578063d86ed3e5146101dc57610093565b806316c941e214610098578063230dbd29146100b457806330d9c915146100e457806353c11f9914610114575b600080fd5b6100b260048036038101906100ad919061250f565b61020c565b005b6100ce60048036038101906100c991906123ef565b6104c3565b6040516100db91906127ef565b60405180910390f35b6100fe60048036038101906100f9919061233f565b610500565b60405161010b91906127ef565b60405180910390f35b61012e600480360381019061012991906123ef565b610838565b60405161013b91906127ef565b60405180910390f35b61015e6004803603810190610159919061250f565b61103a565b005b61017a6004803603810190610175919061233f565b6112f1565b60405161018791906127ef565b60405180910390f35b6101aa60048036038101906101a5919061233f565b61132e565b6040516101b791906127ef565b60405180910390f35b6101da60048036038101906101d59190612217565b61136b565b005b6101f660048036038101906101f191906123ef565b611418565b60405161020391906127ef565b60405180910390f35b338160008060009054906101000a900473ffffffffffffffffffffffffffffffffffffffff1673ffffffffffffffffffffffffffffffffffffffff166365b6d27e336040518263ffffffff1660e01b815260040161026a91906127b0565b60006040518083038186803b15801561028257600080fd5b505afa158015610296573d6000803e3d6000fd5b505050506040513d6000823e3d601f19601f820116820180604052508101906102bf9190612269565b905060005b815181101561047e57818181518110610306577f4e487b7100000000000000000000000000000000000000000000000000000000600052603260045260246000fd5b60200260200101516000015183141561046b5760036005811115610353577f4e487b7100000000000000000000000000000000000000000000000000000000600052602160045260246000fd5b82828151811061038c577f4e487b7100000000000000000000000000000000000000000000000000000000600052603260045260246000fd5b602002602001015160a0015160058111156103d0577f4e487b7100000000000000000000000000000000000000000000000000000000600052602160045260246000fd5b14156104645760008054906101000a900473ffffffffffffffffffffffffffffffffffffffff1673ffffffffffffffffffffffffffffffffffffffff166376e7ae5586336040518363ffffffff1660e01b8152600401610431929190612a09565b600060405180830381600087803b15801561044b57600080fd5b505af115801561045f573d6000803e3d6000fd5b505050505b50506104be565b808061047690612e81565b9150506102c4565b5081836040517f6f1b3c0b0000000000000000000000000000000000000000000000000000000081526004016104b5929190612a09565b60405180910390fd5b505050565b60606040517f08c379a00000000000000000000000000000000000000000000000000000000081526004016104f7906129ce565b60405180910390fd5b6060878761050d82611c65565b61054c576040517f08c379a00000000000000000000000000000000000000000000000000000000081526004016105439061290e565b60405180910390fd5b61055581611cbf565b610594576040517f08c379a000000000000000000000000000000000000000000000000000000000815260040161058b906128ee565b60405180910390fd5b600160009054906101000a900473ffffffffffffffffffffffffffffffffffffffff1673ffffffffffffffffffffffffffffffffffffffff163373ffffffffffffffffffffffffffffffffffffffff1614610624576040517f08c379a000000000000000000000000000000000000000000000000000000000815260040161061b9061296e565b60405180910390fd5b6000600160009054906101000a900473ffffffffffffffffffffffffffffffffffffffff1673ffffffffffffffffffffffffffffffffffffffff16633f6c923a87876040518363ffffffff1660e01b81526004016106839291906127cb565b60006040518083038186803b15801561069b57600080fd5b505afa1580156106af573d6000803e3d6000fd5b505050506040513d6000823e3d601f19601f820116820180604052508101906106d891906124ce565b905060008160a001518060200190518101906106f49190612538565b905060008060009054906101000a900473ffffffffffffffffffffffffffffffffffffffff1673ffffffffffffffffffffffffffffffffffffffff16634f91b350836040518263ffffffff1660e01b815260040161075291906129ee565b60206040518083038186803b15801561076a57600080fd5b505afa15801561077e573d6000803e3d6000fd5b505050506040513d601f19601f820116820180604052508101906107a29190612538565b116107e2576040517f08c379a00000000000000000000000000000000000000000000000000000000081526004016107d99061298e565b60405180910390fd5b86868080601f016020809104026020016040519081016040528093929190818152602001838380828437600081840152601f19601f82011690508083019250505050505050945050505050979650505050505050565b6060898961084582611c65565b610884576040517f08c379a000000000000000000000000000000000000000000000000000000000815260040161087b9061290e565b60405180910390fd5b61088d81611cbf565b6108cc576040517f08c379a00000000000000000000000000000000000000000000000000000000081526004016108c3906128ee565b60405180910390fd5b600160009054906101000a900473ffffffffffffffffffffffffffffffffffffffff1673ffffffffffffffffffffffffffffffffffffffff163373ffffffffffffffffffffffffffffffffffffffff161461095c576040517f08c379a00000000000000000000000000000000000000000000000000000000081526004016109539061296e565b60405180910390fd5b6000600160009054906101000a900473ffffffffffffffffffffffffffffffffffffffff1673ffffffffffffffffffffffffffffffffffffffff16633f6c923a87876040518363ffffffff1660e01b81526004016109bb9291906127cb565b60006040518083038186803b1580156109d357600080fd5b505afa1580156109e7573d6000803e3d6000fd5b505050506040513d6000823e3d601f19601f82011682018060405250810190610a1091906124ce565b905060008160a00151806020019051810190610a2c9190612538565b9050600062278d0060008054906101000a900473ffffffffffffffffffffffffffffffffffffffff1673ffffffffffffffffffffffffffffffffffffffff16636c230eef846040518263ffffffff1660e01b8152600401610a8d91906129ee565b60206040518083038186803b158015610aa557600080fd5b505afa158015610ab9573d6000803e3d6000fd5b505050506040513d601f19601f82011682018060405250810190610add9190612538565b610ae79190612c47565b9050600160009054906101000a900473ffffffffffffffffffffffffffffffffffffffff1673ffffffffffffffffffffffffffffffffffffffff16634329d293600260009054906101000a900473ffffffffffffffffffffffffffffffffffffffff166350209a6260e01b600360009054906101000a900473ffffffffffffffffffffffffffffffffffffffff16600460008881526020019081526020016000206000896060015173ffffffffffffffffffffffffffffffffffffffff1673ffffffffffffffffffffffffffffffffffffffff16815260200190815260200160002060000160009054906101000a900473ffffffffffffffffffffffffffffffffffffffff16600587610bfa9190612bdd565b600460008a815260200190815260200160002060008b6060015173ffffffffffffffffffffffffffffffffffffffff1673ffffffffffffffffffffffffffffffffffffffff16815260200190815260200160002060010154610c5c9190612c78565b600067ffffffffffffffff811115610c9d577f4e487b7100000000000000000000000000000000000000000000000000000000600052604160045260246000fd5b6040519080825280601f01601f191660200182016040528015610ccf5781602001600182028036833780820191505090505b50604051602401610ce394939291906128a2565b604051602081830303815290604052907bffffffffffffffffffffffffffffffffffffffffffffffffffffffff19166020820180517bffffffffffffffffffffffffffffffffffffffffffffffffffffffff83818316178352505050508b8b6040518563ffffffff1660e01b8152600401610d619493929190612811565b600060405180830381600087803b158015610d7b57600080fd5b505af1158015610d8f573d6000803e3d6000fd5b505050506040513d6000823e3d601f19601f82011682018060405250810190610db891906122d3565b508096505060008054906101000a900473ffffffffffffffffffffffffffffffffffffffff1673ffffffffffffffffffffffffffffffffffffffff16630b197fbf83600460008681526020019081526020016000206000876060015173ffffffffffffffffffffffffffffffffffffffff1673ffffffffffffffffffffffffffffffffffffffff16815260200190815260200160002060000160009054906101000a900473ffffffffffffffffffffffffffffffffffffffff1686606001516040518463ffffffff1660e01b8152600401610e9593929190612a32565b600060405180830381600087803b158015610eaf57600080fd5b505af1158015610ec3573d6000803e3d6000fd5b505050506000600460008481526020019081526020016000206000856060015173ffffffffffffffffffffffffffffffffffffffff1673ffffffffffffffffffffffffffffffffffffffff16815260200190815260200160002060000160006101000a81548173ffffffffffffffffffffffffffffffffffffffff021916908373ffffffffffffffffffffffffffffffffffffffff160217905550600581610f6b9190612bdd565b600460008481526020019081526020016000206000856060015173ffffffffffffffffffffffffffffffffffffffff1673ffffffffffffffffffffffffffffffffffffffff16815260200190815260200160002060010154610fcd9190612c78565b600460008481526020019081526020016000206000856060015173ffffffffffffffffffffffffffffffffffffffff1673ffffffffffffffffffffffffffffffffffffffff1681526020019081526020016000206001018190555050505050509998505050505050505050565b338160008060009054906101000a900473ffffffffffffffffffffffffffffffffffffffff1673ffffffffffffffffffffffffffffffffffffffff166365b6d27e336040518263ffffffff1660e01b815260040161109891906127b0565b60006040518083038186803b1580156110b057600080fd5b505afa1580156110c4573d6000803e3d6000fd5b505050506040513d6000823e3d601f19601f820116820180604052508101906110ed9190612269565b905060005b81518110156112ac57818181518110611134577f4e487b7100000000000000000000000000000000000000000000000000000000600052603260045260246000fd5b6020026020010151600001518314156112995760006005811115611181577f4e487b7100000000000000000000000000000000000000000000000000000000600052602160045260246000fd5b8282815181106111ba577f4e487b7100000000000000000000000000000000000000000000000000000000600052603260045260246000fd5b602002602001015160a0015160058111156111fe577f4e487b7100000000000000000000000000000000000000000000000000000000600052602160045260246000fd5b14156112925760008054906101000a900473ffffffffffffffffffffffffffffffffffffffff1673ffffffffffffffffffffffffffffffffffffffff1663faf4bfd486336040518363ffffffff1660e01b815260040161125f929190612a09565b600060405180830381600087803b15801561127957600080fd5b505af115801561128d573d6000803e3d6000fd5b505050505b50506112ec565b80806112a490612e81565b9150506110f2565b5081836040517f84a7e30c0000000000000000000000000000000000000000000000000000000081526004016112e3929190612a09565b60405180910390fd5b505050565b60606040517f08c379a00000000000000000000000000000000000000000000000000000000081526004016113259061292e565b60405180910390fd5b60606040517f08c379a0000000000000000000000000000000000000000000000000000000008152600401611362906129ae565b60405180910390fd5b600360149054906101000a900460ff166113ba576040517f08c379a00000000000000000000000000000000000000000000000000000000081526004016113b19061294e565b60405180910390fd5b806000806101000a81548173ffffffffffffffffffffffffffffffffffffffff021916908373ffffffffffffffffffffffffffffffffffffffff1602179055506000600360146101000a81548160ff02191690831515021790555050565b6060898961142582611c65565b611464576040517f08c379a000000000000000000000000000000000000000000000000000000000815260040161145b9061290e565b60405180910390fd5b61146d81611cbf565b6114ac576040517f08c379a00000000000000000000000000000000000000000000000000000000081526004016114a3906128ee565b60405180910390fd5b600160009054906101000a900473ffffffffffffffffffffffffffffffffffffffff1673ffffffffffffffffffffffffffffffffffffffff163373ffffffffffffffffffffffffffffffffffffffff161461153c576040517f08c379a00000000000000000000000000000000000000000000000000000000081526004016115339061296e565b60405180910390fd5b6000600160009054906101000a900473ffffffffffffffffffffffffffffffffffffffff1673ffffffffffffffffffffffffffffffffffffffff16633f6c923a87876040518363ffffffff1660e01b815260040161159b9291906127cb565b60006040518083038186803b1580156115b357600080fd5b505afa1580156115c7573d6000803e3d6000fd5b505050506040513d6000823e3d601f19601f820116820180604052508101906115f091906124ce565b90506000600260009054906101000a900473ffffffffffffffffffffffffffffffffffffffff1673ffffffffffffffffffffffffffffffffffffffff1663e6a1e888600360009054906101000a900473ffffffffffffffffffffffffffffffffffffffff168460600151306040518463ffffffff1660e01b81526004016116799392919061286b565b60806040518083038186803b15801561169157600080fd5b505afa1580156116a5573d6000803e3d6000fd5b505050506040513d601f19601f820116820180604052508101906116c99190612561565b505091505060008260a001518060200190518101906116e89190612538565b9050600062278d0060008054906101000a900473ffffffffffffffffffffffffffffffffffffffff1673ffffffffffffffffffffffffffffffffffffffff16636c230eef846040518263ffffffff1660e01b815260040161174991906129ee565b60206040518083038186803b15801561176157600080fd5b505afa158015611775573d6000803e3d6000fd5b505050506040513d601f19601f820116820180604052508101906117999190612538565b6117a39190612c47565b90506005816117b29190612bdd565b600460008481526020019081526020016000206000866060015173ffffffffffffffffffffffffffffffffffffffff1673ffffffffffffffffffffffffffffffffffffffff168152602001908152602001600020600101546118149190612b49565b83600b0b12611c525760008060009054906101000a900473ffffffffffffffffffffffffffffffffffffffff1673ffffffffffffffffffffffffffffffffffffffff166329b0ac61846040518263ffffffff1660e01b815260040161187991906129ee565b602060405180830381600087803b15801561189357600080fd5b505af11580156118a7573d6000803e3d6000fd5b505050506040513d601f19601f820116820180604052508101906118cb9190612240565b9050600160009054906101000a900473ffffffffffffffffffffffffffffffffffffffff1673ffffffffffffffffffffffffffffffffffffffff16634329d293600260009054906101000a900473ffffffffffffffffffffffffffffffffffffffff166362fc305e60e01b600360009054906101000a900473ffffffffffffffffffffffffffffffffffffffff16856005886119679190612bdd565b600067ffffffffffffffff8111156119a8577f4e487b7100000000000000000000000000000000000000000000000000000000600052604160045260246000fd5b6040519080825280601f01601f1916602001820160405280156119da5781602001600182028036833780820191505090505b506040516024016119ee94939291906128a2565b604051602081830303815290604052907bffffffffffffffffffffffffffffffffffffffffffffffffffffffff19166020820180517bffffffffffffffffffffffffffffffffffffffffffffffffffffffff83818316178352505050508d8d6040518563ffffffff1660e01b8152600401611a6c9493929190612811565b600060405180830381600087803b158015611a8657600080fd5b505af1158015611a9a573d6000803e3d6000fd5b505050506040513d6000823e3d601f19601f82011682018060405250810190611ac391906122d3565b508098505060008054906101000a900473ffffffffffffffffffffffffffffffffffffffff1673ffffffffffffffffffffffffffffffffffffffff16639e909f90848388606001516040518463ffffffff1660e01b8152600401611b2993929190612a32565b600060405180830381600087803b158015611b4357600080fd5b505af1158015611b57573d6000803e3d6000fd5b5050505080600460008581526020019081526020016000206000876060015173ffffffffffffffffffffffffffffffffffffffff1673ffffffffffffffffffffffffffffffffffffffff16815260200190815260200160002060000160006101000a81548173ffffffffffffffffffffffffffffffffffffffff021916908373ffffffffffffffffffffffffffffffffffffffff16021790555083600b0b600460008581526020019081526020016000206000876060015173ffffffffffffffffffffffffffffffffffffffff1673ffffffffffffffffffffffffffffffffffffffff16815260200190815260200160002060010181905550505b5050505050509998505050505050505050565b6000600360009054906101000a900473ffffffffffffffffffffffffffffffffffffffff1673ffffffffffffffffffffffffffffffffffffffff168273ffffffffffffffffffffffffffffffffffffffff16149050919050565b60007fa9214cc96615e0085d3bb077758db69497dc2dce3b2b1e97bc93c3d18d83efd38273ffffffffffffffffffffffffffffffffffffffff16637730599e6040518163ffffffff1660e01b815260040160206040518083038186803b158015611d2857600080fd5b505afa158015611d3c573d6000803e3d6000fd5b505050506040513d601f19601f82011682018060405250810190611d6091906122aa565b149050919050565b6000611d7b611d7684612a8e565b612a69565b90508083825260208201905082856020860282011115611d9a57600080fd5b60005b85811015611de457815167ffffffffffffffff811115611dbc57600080fd5b808601611dc98982612124565b85526020850194506020840193505050600181019050611d9d565b5050509392505050565b6000611e01611dfc84612aba565b612a69565b905082815260208101848484011115611e1957600080fd5b611e24848285612e1d565b509392505050565b6000611e3f611e3a84612aeb565b612a69565b905082815260208101848484011115611e5757600080fd5b611e62848285612e1d565b509392505050565b600081359050611e7981613197565b92915050565b600081519050611e8e81613197565b92915050565b600082601f830112611ea557600080fd5b8151611eb5848260208601611d68565b91505092915050565b600081359050611ecd816131ae565b92915050565b600081519050611ee2816131ae565b92915050565b600081519050611ef7816131c5565b92915050565b60008083601f840112611f0f57600080fd5b8235905067ffffffffffffffff811115611f2857600080fd5b602083019150836001820283011115611f4057600080fd5b9250929050565b600082601f830112611f5857600080fd5b8151611f68848260208601611dee565b91505092915050565b600081359050611f80816131dc565b92915050565b600081519050611f95816131f3565b92915050565b600081519050611faa8161320a565b92915050565b600081519050611fbf8161321a565b92915050565b600081519050611fd481613231565b92915050565b600082601f830112611feb57600080fd5b8151611ffb848260208601611e2c565b91505092915050565b6000610160828403121561201757600080fd5b612022610160612a69565b9050600061203284828501612202565b600083015250602061204684828501612202565b602083015250604061205a848285016121ed565b604083015250606061206e84828501611e7f565b606083015250608061208284828501611ee8565b60808301525060a082015167ffffffffffffffff8111156120a257600080fd5b6120ae84828501611f47565b60a08301525060c06120c2848285016121ed565b60c08301525060e06120d6848285016121ed565b60e0830152506101006120eb84828501611fb0565b6101008301525061012061210184828501611e7f565b6101208301525061014061211784828501611f86565b6101408301525092915050565b600060c0828403121561213657600080fd5b61214060c0612a69565b90506000612150848285016121ed565b6000830152506020612164848285016121ed565b6020830152506040612178848285016121ed565b604083015250606082015167ffffffffffffffff81111561219857600080fd5b6121a484828501611fda565b60608301525060806121b884828501611e7f565b60808301525060a06121cc84828501611f9b565b60a08301525092915050565b6000813590506121e781613248565b92915050565b6000815190506121fc81613248565b92915050565b6000815190506122118161325f565b92915050565b60006020828403121561222957600080fd5b600061223784828501611e6a565b91505092915050565b60006020828403121561225257600080fd5b600061226084828501611e7f565b91505092915050565b60006020828403121561227b57600080fd5b600082015167ffffffffffffffff81111561229557600080fd5b6122a184828501611e94565b91505092915050565b6000602082840312156122bc57600080fd5b60006122ca84828501611ed3565b91505092915050565b600080604083850312156122e657600080fd5b600083015167ffffffffffffffff81111561230057600080fd5b61230c85828601611f47565b925050602083015167ffffffffffffffff81111561232957600080fd5b61233585828601611f47565b9150509250929050565b600080600080600080600060a0888a03121561235a57600080fd5b60006123688a828b01611f71565b97505060206123798a828b01611e6a565b965050604061238a8a828b01611ebe565b955050606088013567ffffffffffffffff8111156123a757600080fd5b6123b38a828b01611efd565b9450945050608088013567ffffffffffffffff8111156123d257600080fd5b6123de8a828b01611efd565b925092505092959891949750929550565b600080600080600080600080600060c08a8c03121561240d57600080fd5b600061241b8c828d01611f71565b995050602061242c8c828d01611e6a565b985050604061243d8c828d01611ebe565b97505060608a013567ffffffffffffffff81111561245a57600080fd5b6124668c828d01611efd565b965096505060808a013567ffffffffffffffff81111561248557600080fd5b6124918c828d01611efd565b945094505060a08a013567ffffffffffffffff8111156124b057600080fd5b6124bc8c828d01611efd565b92509250509295985092959850929598565b6000602082840312156124e057600080fd5b600082015167ffffffffffffffff8111156124fa57600080fd5b61250684828501612004565b91505092915050565b60006020828403121561252157600080fd5b600061252f848285016121d8565b91505092915050565b60006020828403121561254a57600080fd5b6000612558848285016121ed565b91505092915050565b6000806000806080858703121561257757600080fd5b6000612585878288016121ed565b945050602061259687828801611fc5565b93505060406125a7878288016121ed565b92505060606125b8878288016121ed565b91505092959194509250565b6125cd81612d0c565b82525050565b60006125df8385612b27565b93506125ec838584612e0e565b6125f583612f57565b840190509392505050565b600061260b82612b1c565b6126158185612b27565b9350612625818560208601612e1d565b61262e81612f57565b840191505092915050565b61264281612dc6565b82525050565b61265181612dea565b82525050565b61266081612d78565b82525050565b6000612673602183612b38565b915061267e82612f68565b604082019050919050565b6000612696601f83612b38565b91506126a182612fb7565b602082019050919050565b60006126b9603383612b38565b91506126c482612fe0565b604082019050919050565b60006126dc601583612b38565b91506126e78261302f565b602082019050919050565b60006126ff602283612b38565b915061270a82613058565b604082019050919050565b6000612722600283612b27565b915061272d826130a7565b602082019050919050565b6000612745601583612b38565b9150612750826130d0565b602082019050919050565b6000612768602f83612b38565b9150612773826130f9565b604082019050919050565b600061278b602e83612b38565b915061279682613148565b604082019050919050565b6127aa81612daf565b82525050565b60006020820190506127c560008301846125c4565b92915050565b600060208201905081810360008301526127e68184866125d3565b90509392505050565b600060208201905081810360008301526128098184612600565b905092915050565b60006080820190506128266000830187612639565b81810360208301526128388186612600565b9050818103604083015261284b81612715565b905081810360608301526128608184866125d3565b905095945050505050565b60006060820190506128806000830186612648565b61288d60208301856125c4565b61289a60408301846125c4565b949350505050565b60006080820190506128b76000830187612648565b6128c460208301866125c4565b6128d16040830185612657565b81810360608301526128e38184612600565b905095945050505050565b6000602082019050818103600083015261290781612666565b9050919050565b6000602082019050818103600083015261292781612689565b9050919050565b60006020820190508181036000830152612947816126ac565b9050919050565b60006020820190508181036000830152612967816126cf565b9050919050565b60006020820190508181036000830152612987816126f2565b9050919050565b600060208201905081810360008301526129a781612738565b9050919050565b600060208201905081810360008301526129c78161275b565b9050919050565b600060208201905081810360008301526129e78161277e565b9050919050565b6000602082019050612a0360008301846127a1565b92915050565b6000604082019050612a1e60008301856127a1565b612a2b60208301846125c4565b9392505050565b6000606082019050612a4760008301866127a1565b612a5460208301856125c4565b612a6160408301846125c4565b949350505050565b6000612a73612a84565b9050612a7f8282612e50565b919050565b6000604051905090565b600067ffffffffffffffff821115612aa957612aa8612f28565b5b602082029050602081019050919050565b600067ffffffffffffffff821115612ad557612ad4612f28565b5b612ade82612f57565b9050602081019050919050565b600067ffffffffffffffff821115612b0657612b05612f28565b5b612b0f82612f57565b9050602081019050919050565b600081519050919050565b600082825260208201905092915050565b600082825260208201905092915050565b6000612b5482612d78565b9150612b5f83612d78565b9250817f7fffffffffffffffffffffffffffffffffffffffffffffffffffffffffffffff03831360008312151615612b9a57612b99612eca565b5b817f8000000000000000000000000000000000000000000000000000000000000000038312600083121615612bd257612bd1612eca565b5b828201905092915050565b6000612be882612d78565b9150612bf383612d78565b925082612c0357612c02612ef9565b5b600160000383147f800000000000000000000000000000000000000000000000000000000000000083141615612c3c57612c3b612eca565b5b828205905092915050565b6000612c5282612daf565b9150612c5d83612daf565b925082612c6d57612c6c612ef9565b5b828204905092915050565b6000612c8382612d78565b9150612c8e83612d78565b9250827f800000000000000000000000000000000000000000000000000000000000000001821260008412151615612cc957612cc8612eca565b5b827f7fffffffffffffffffffffffffffffffffffffffffffffffffffffffffffffff018213600084121615612d0157612d00612eca565b5b828203905092915050565b6000612d1782612d8f565b9050919050565b6000819050919050565b60007fffffffff0000000000000000000000000000000000000000000000000000000082169050919050565b6000612d5f82612d0c565b9050919050565b6000612d7182612d0c565b9050919050565b6000819050919050565b600081600b0b9050919050565b600073ffffffffffffffffffffffffffffffffffffffff82169050919050565b6000819050919050565b600060ff82169050919050565b6000612dd182612dd8565b9050919050565b6000612de382612d8f565b9050919050565b6000612df582612dfc565b9050919050565b6000612e0782612d8f565b9050919050565b82818337600083830152505050565b60005b83811015612e3b578082015181840152602081019050612e20565b83811115612e4a576000848401525b50505050565b612e5982612f57565b810181811067ffffffffffffffff82111715612e7857612e77612f28565b5b80604052505050565b6000612e8c82612daf565b91507fffffffffffffffffffffffffffffffffffffffffffffffffffffffffffffffff821415612ebf57612ebe612eca565b5b600182019050919050565b7f4e487b7100000000000000000000000000000000000000000000000000000000600052601160045260246000fd5b7f4e487b7100000000000000000000000000000000000000000000000000000000600052601260045260246000fd5b7f4e487b7100000000000000000000000000000000000000000000000000000000600052604160045260246000fd5b6000601f19601f8301169050919050565b7f5265646972656374416c6c3a206f6e6c7920434641763120737570706f72746560008201527f6400000000000000000000000000000000000000000000000000000000000000602082015250565b7f5265646972656374416c6c3a206e6f7420616363657074656420746f6b656e00600082015250565b7f556e737570706f727465642063616c6c6261636b202d20204265666f7265204160008201527f677265656d656e74205465726d696e6174656400000000000000000000000000602082015250565b7f556e617574686f72697365642072657175657374210000000000000000000000600082015250565b7f5265646972656374416c6c3a20737570706f7274206f6e6c79206f6e6520686f60008201527f7374000000000000000000000000000000000000000000000000000000000000602082015250565b7f3078000000000000000000000000000000000000000000000000000000000000600082015250565b7f52656e746572206e6f7420617661696c61626c65210000000000000000000000600082015250565b7f556e737570706f727465642063616c6c6261636b202d204265666f726520416760008201527f7265656d656e7420757064617465640000000000000000000000000000000000602082015250565b7f556e737570706f727465642063616c6c6261636b202d2041667465722041677260008201527f65656d656e742055706461746564000000000000000000000000000000000000602082015250565b6131a081612d0c565b81146131ab57600080fd5b50565b6131b781612d1e565b81146131c257600080fd5b50565b6131ce81612d28565b81146131d957600080fd5b50565b6131e581612d54565b81146131f057600080fd5b50565b6131fc81612d66565b811461320757600080fd5b50565b6006811061321757600080fd5b50565b61322381612d78565b811461322e57600080fd5b50565b61323a81612d82565b811461324557600080fd5b50565b61325181612daf565b811461325c57600080fd5b50565b61326881612db9565b811461327357600080fd5b5056fea2646970667358221220c64f8f2acc007410adbc16b3e7c3a07606c0d00cf5ef0edfe6308ed1cc9fa83c64736f6c63430008040033",
  "linkReferences": {},
  "deployedLinkReferences": {}
}