{
  "_format": "hh-sol-artifact-1",
  "contractName": "eBookExchange",
  "sourceName": "contracts/eBookExchange.sol",
  "abi": [
    {
      "inputs": [
        {
          "internalType": "address",
          "name": "StorageContractAddress",
          "type": "address"
        }
      ],
      "stateMutability": "nonpayable",
      "type": "constructor"
    },
    {
      "inputs": [
        {
          "internalType": "uint256",
          "name": "bookID",
          "type": "uint256"
        },
        {
          "internalType": "address",
          "name": "buyer",
          "type": "address"
        }
      ],
      "name": "BookAlreadyInShelf",
      "type": "error"
    },
    {
      "inputs": [
        {
          "internalType": "uint256",
          "name": "bookID",
          "type": "uint256"
        },
        {
          "internalType": "address",
          "name": "seller",
          "type": "address"
        }
      ],
      "name": "BookNotInShelf",
      "type": "error"
    },
    {
      "inputs": [
        {
          "internalType": "uint256",
          "name": "bookID",
          "type": "uint256"
        }
      ],
      "name": "placeBuyOrder",
      "outputs": [],
      "stateMutability": "payable",
      "type": "function"
    },
    {
      "inputs": [
        {
          "internalType": "uint256",
          "name": "bookID",
          "type": "uint256"
        }
      ],
      "name": "placeSellOrder",
      "outputs": [],
      "stateMutability": "payable",
      "type": "function"
    }
  ],
  "bytecode": "0x60806040523480156200001157600080fd5b50604051620017d6380380620017d683398181016040528101906200003791906200009e565b600160008190555080600160006101000a81548173ffffffffffffffffffffffffffffffffffffffff021916908373ffffffffffffffffffffffffffffffffffffffff1602179055505062000118565b6000815190506200009881620000fe565b92915050565b600060208284031215620000b157600080fd5b6000620000c18482850162000087565b91505092915050565b6000620000d782620000de565b9050919050565b600073ffffffffffffffffffffffffffffffffffffffff82169050919050565b6200010981620000ca565b81146200011557600080fd5b50565b6116ae80620001286000396000f3fe6080604052600436106100295760003560e01c806319f577b31461002e578063842041bf1461004a575b600080fd5b6100486004803603810190610043919061114c565b610066565b005b610064600480360381019061005f919061114c565b610779565b005b600260005414156100ac576040517f08c379a00000000000000000000000000000000000000000000000000000000081526004016100a3906112ab565b60405180910390fd5b6002600081905550806000600160009054906101000a900473ffffffffffffffffffffffffffffffffffffffff1673ffffffffffffffffffffffffffffffffffffffff166365b6d27e336040518263ffffffff1660e01b81526004016101129190611202565b60006040518083038186803b15801561012a57600080fd5b505afa15801561013e573d6000803e3d6000fd5b505050506040513d6000823e3d601f19601f8201168201806040525081019061016791906110ca565b905060005b8151811015610213578181815181106101ae577f4e487b7100000000000000000000000000000000000000000000000000000000600052603260045260246000fd5b6020026020010151600001518314156102005782336040517f3b29c1010000000000000000000000000000000000000000000000000000000081526004016101f79291906112e6565b60405180910390fd5b808061020b90611501565b91505061016c565b506000600160009054906101000a900473ffffffffffffffffffffffffffffffffffffffff1673ffffffffffffffffffffffffffffffffffffffff1663e0ff5b8b856040518263ffffffff1660e01b815260040161027191906112cb565b60006040518083038186803b15801561028957600080fd5b505afa15801561029d573d6000803e3d6000fd5b505050506040513d6000823e3d601f19601f820116820180604052508101906102c6919061110b565b9050806040015134101561030f576040517f08c379a00000000000000000000000000000000000000000000000000000000081526004016103069061128b565b60405180910390fd5b6000600160009054906101000a900473ffffffffffffffffffffffffffffffffffffffff1673ffffffffffffffffffffffffffffffffffffffff1663fc4f7949866040518263ffffffff1660e01b815260040161036c91906112cb565b60206040518083038186803b15801561038457600080fd5b505afa158015610398573d6000803e3d6000fd5b505050506040513d601f19601f820116820180604052508101906103bc9190611175565b1115610685576000600160009054906101000a900473ffffffffffffffffffffffffffffffffffffffff1673ffffffffffffffffffffffffffffffffffffffff16639b0e957c866040518263ffffffff1660e01b815260040161041f91906112cb565b602060405180830381600087803b15801561043957600080fd5b505af115801561044d573d6000803e3d6000fd5b505050506040513d601f19601f8201168201806040525081019061047191906110a1565b9050816020015173ffffffffffffffffffffffffffffffffffffffff166108fc6064601485604001516104a491906113d3565b6104ae91906113a2565b9081150290604051600060405180830381858888f193505050501580156104d9573d6000803e3d6000fd5b50600160009054906101000a900473ffffffffffffffffffffffffffffffffffffffff1673ffffffffffffffffffffffffffffffffffffffff1663f5dc2ae283602001518760646014876040015161053191906113d3565b61053b91906113a2565b6040518463ffffffff1660e01b815260040161055993929190611254565b600060405180830381600087803b15801561057357600080fd5b505af1158015610587573d6000803e3d6000fd5b505050508073ffffffffffffffffffffffffffffffffffffffff166108fc6064605085604001516105b891906113d3565b6105c291906113a2565b9081150290604051600060405180830381858888f193505050501580156105ed573d6000803e3d6000fd5b50600160009054906101000a900473ffffffffffffffffffffffffffffffffffffffff1673ffffffffffffffffffffffffffffffffffffffff1663fe0e55de3383886040518463ffffffff1660e01b815260040161064d9392919061121d565b600060405180830381600087803b15801561066757600080fd5b505af115801561067b573d6000803e3d6000fd5b5050505050610715565b600160009054906101000a900473ffffffffffffffffffffffffffffffffffffffff1673ffffffffffffffffffffffffffffffffffffffff1663ef2a174785336040518363ffffffff1660e01b81526004016106e29291906112e6565b600060405180830381600087803b1580156106fc57600080fd5b505af1158015610710573d6000803e3d6000fd5b505050505b3373ffffffffffffffffffffffffffffffffffffffff166108fc82604001513461073f919061142d565b9081150290604051600060405180830381858888f1935050505015801561076a573d6000803e3d6000fd5b50505050600160008190555050565b600260005414156107bf576040517f08c379a00000000000000000000000000000000000000000000000000000000081526004016107b6906112ab565b60405180910390fd5b6002600081905550806000600160009054906101000a900473ffffffffffffffffffffffffffffffffffffffff1673ffffffffffffffffffffffffffffffffffffffff166365b6d27e336040518263ffffffff1660e01b81526004016108259190611202565b60006040518083038186803b15801561083d57600080fd5b505afa158015610851573d6000803e3d6000fd5b505050506040513d6000823e3d601f19601f8201168201806040525081019061087a91906110ca565b905060005b8151811015610da9578181815181106108c1577f4e487b7100000000000000000000000000000000000000000000000000000000600052603260045260246000fd5b602002602001015160000151831415610d96576000600160009054906101000a900473ffffffffffffffffffffffffffffffffffffffff1673ffffffffffffffffffffffffffffffffffffffff1663e44dc2fa866040518263ffffffff1660e01b815260040161093191906112cb565b60206040518083038186803b15801561094957600080fd5b505afa15801561095d573d6000803e3d6000fd5b505050506040513d601f19601f820116820180604052508101906109819190611175565b1115610cff576000600160009054906101000a900473ffffffffffffffffffffffffffffffffffffffff1673ffffffffffffffffffffffffffffffffffffffff1663e0ff5b8b866040518263ffffffff1660e01b81526004016109e491906112cb565b60006040518083038186803b1580156109fc57600080fd5b505afa158015610a10573d6000803e3d6000fd5b505050506040513d6000823e3d601f19601f82011682018060405250810190610a39919061110b565b90506000600160009054906101000a900473ffffffffffffffffffffffffffffffffffffffff1673ffffffffffffffffffffffffffffffffffffffff16638f6686fc876040518263ffffffff1660e01b8152600401610a9891906112cb565b602060405180830381600087803b158015610ab257600080fd5b505af1158015610ac6573d6000803e3d6000fd5b505050506040513d601f19601f82011682018060405250810190610aea91906110a1565b9050816020015173ffffffffffffffffffffffffffffffffffffffff166108fc606460148560400151610b1d91906113d3565b610b2791906113a2565b9081150290604051600060405180830381858888f19350505050158015610b52573d6000803e3d6000fd5b50600160009054906101000a900473ffffffffffffffffffffffffffffffffffffffff1673ffffffffffffffffffffffffffffffffffffffff1663f5dc2ae2836020015188606460148760400151610baa91906113d3565b610bb491906113a2565b6040518463ffffffff1660e01b8152600401610bd293929190611254565b600060405180830381600087803b158015610bec57600080fd5b505af1158015610c00573d6000803e3d6000fd5b505050503373ffffffffffffffffffffffffffffffffffffffff166108fc606460508560400151610c3191906113d3565b610c3b91906113a2565b9081150290604051600060405180830381858888f19350505050158015610c66573d6000803e3d6000fd5b50600160009054906101000a900473ffffffffffffffffffffffffffffffffffffffff1673ffffffffffffffffffffffffffffffffffffffff1663fe0e55de8233896040518463ffffffff1660e01b8152600401610cc69392919061121d565b600060405180830381600087803b158015610ce057600080fd5b505af1158015610cf4573d6000803e3d6000fd5b505050505050610d8f565b600160009054906101000a900473ffffffffffffffffffffffffffffffffffffffff1673ffffffffffffffffffffffffffffffffffffffff1663e23aceec85336040518363ffffffff1660e01b8152600401610d5c9291906112e6565b600060405180830381600087803b158015610d7657600080fd5b505af1158015610d8a573d6000803e3d6000fd5b505050505b5050610de9565b8080610da190611501565b91505061087f565b5081336040517f2a549561000000000000000000000000000000000000000000000000000000008152600401610de09291906112e6565b60405180910390fd5b50600160008190555050565b6000610e08610e0384611334565b61130f565b90508083825260208201905082856020860282011115610e2757600080fd5b60005b85811015610e7157815167ffffffffffffffff811115610e4957600080fd5b808601610e568982610fc3565b85526020850194506020840193505050600181019050610e2a565b5050509392505050565b6000610e8e610e8984611360565b61130f565b905082815260208101848484011115610ea657600080fd5b610eb184828561149d565b509392505050565b600081519050610ec88161163a565b92915050565b600082601f830112610edf57600080fd5b8151610eef848260208601610df5565b91505092915050565b600081519050610f0781611651565b92915050565b600082601f830112610f1e57600080fd5b8151610f2e848260208601610e7b565b91505092915050565b600060808284031215610f4957600080fd5b610f53608061130f565b9050600082015167ffffffffffffffff811115610f6f57600080fd5b610f7b84828501610f0d565b6000830152506020610f8f84828501610eb9565b6020830152506040610fa38482850161108c565b6040830152506060610fb784828501610eb9565b60608301525092915050565b600060c08284031215610fd557600080fd5b610fdf60c061130f565b90506000610fef8482850161108c565b60008301525060206110038482850161108c565b60208301525060406110178482850161108c565b604083015250606082015167ffffffffffffffff81111561103757600080fd5b61104384828501610f0d565b606083015250608061105784828501610eb9565b60808301525060a061106b84828501610ef8565b60a08301525092915050565b60008135905061108681611661565b92915050565b60008151905061109b81611661565b92915050565b6000602082840312156110b357600080fd5b60006110c184828501610eb9565b91505092915050565b6000602082840312156110dc57600080fd5b600082015167ffffffffffffffff8111156110f657600080fd5b61110284828501610ece565b91505092915050565b60006020828403121561111d57600080fd5b600082015167ffffffffffffffff81111561113757600080fd5b61114384828501610f37565b91505092915050565b60006020828403121561115e57600080fd5b600061116c84828501611077565b91505092915050565b60006020828403121561118757600080fd5b60006111958482850161108c565b91505092915050565b6111a781611461565b82525050565b60006111ba601483611391565b91506111c5826115e8565b602082019050919050565b60006111dd601f83611391565b91506111e882611611565b602082019050919050565b6111fc81611493565b82525050565b6000602082019050611217600083018461119e565b92915050565b6000606082019050611232600083018661119e565b61123f602083018561119e565b61124c60408301846111f3565b949350505050565b6000606082019050611269600083018661119e565b61127660208301856111f3565b61128360408301846111f3565b949350505050565b600060208201905081810360008301526112a4816111ad565b9050919050565b600060208201905081810360008301526112c4816111d0565b9050919050565b60006020820190506112e060008301846111f3565b92915050565b60006040820190506112fb60008301856111f3565b611308602083018461119e565b9392505050565b600061131961132a565b905061132582826114d0565b919050565b6000604051905090565b600067ffffffffffffffff82111561134f5761134e6115a8565b5b602082029050602081019050919050565b600067ffffffffffffffff82111561137b5761137a6115a8565b5b611384826115d7565b9050602081019050919050565b600082825260208201905092915050565b60006113ad82611493565b91506113b883611493565b9250826113c8576113c7611579565b5b828204905092915050565b60006113de82611493565b91506113e983611493565b9250817fffffffffffffffffffffffffffffffffffffffffffffffffffffffffffffffff04831182151516156114225761142161154a565b5b828202905092915050565b600061143882611493565b915061144383611493565b9250828210156114565761145561154a565b5b828203905092915050565b600061146c82611473565b9050919050565b600073ffffffffffffffffffffffffffffffffffffffff82169050919050565b6000819050919050565b60005b838110156114bb5780820151818401526020810190506114a0565b838111156114ca576000848401525b50505050565b6114d9826115d7565b810181811067ffffffffffffffff821117156114f8576114f76115a8565b5b80604052505050565b600061150c82611493565b91507fffffffffffffffffffffffffffffffffffffffffffffffffffffffffffffffff82141561153f5761153e61154a565b5b600182019050919050565b7f4e487b7100000000000000000000000000000000000000000000000000000000600052601160045260246000fd5b7f4e487b7100000000000000000000000000000000000000000000000000000000600052601260045260246000fd5b7f4e487b7100000000000000000000000000000000000000000000000000000000600052604160045260246000fd5b6000601f19601f8301169050919050565b7f496e73756666696369656e742066756e64732121000000000000000000000000600082015250565b7f5265656e7472616e637947756172643a207265656e7472616e742063616c6c00600082015250565b61164381611461565b811461164e57600080fd5b50565b6006811061165e57600080fd5b50565b61166a81611493565b811461167557600080fd5b5056fea26469706673582212209ba75c58651800ab74485a48adfb21d75adfbb8a1110d6d159d96f02d0515d8164736f6c63430008040033",
  "linkReferences": {},
  "deployedLinkReferences": {}
}