{
  "_format": "hh-sol-artifact-1",
  "contractName": "eBookPublisher",
  "sourceName": "contracts/eBookPublisher.sol",
  "abi": [
    {
      "inputs": [
        {
          "internalType": "uint256",
          "name": "bookID",
          "type": "uint256"
        },
        {
          "internalType": "address",
          "name": "author",
          "type": "address"
        },
        {
          "internalType": "uint256",
          "name": "price",
          "type": "uint256"
        },
        {
          "internalType": "string",
          "name": "eBookURI",
          "type": "string"
        },
        {
          "internalType": "int256",
          "name": "pricedBooksSupplyLimit",
          "type": "int256"
        },
        {
          "internalType": "address",
          "name": "donator",
          "type": "address"
        }
      ],
      "stateMutability": "nonpayable",
      "type": "constructor"
    },
    {
      "anonymous": false,
      "inputs": [
        {
          "indexed": true,
          "internalType": "address",
          "name": "account",
          "type": "address"
        },
        {
          "indexed": true,
          "internalType": "address",
          "name": "operator",
          "type": "address"
        },
        {
          "indexed": false,
          "internalType": "bool",
          "name": "approved",
          "type": "bool"
        }
      ],
      "name": "ApprovalForAll",
      "type": "event"
    },
    {
      "anonymous": false,
      "inputs": [
        {
          "indexed": true,
          "internalType": "address",
          "name": "operator",
          "type": "address"
        },
        {
          "indexed": true,
          "internalType": "address",
          "name": "from",
          "type": "address"
        },
        {
          "indexed": true,
          "internalType": "address",
          "name": "to",
          "type": "address"
        },
        {
          "indexed": false,
          "internalType": "uint256[]",
          "name": "ids",
          "type": "uint256[]"
        },
        {
          "indexed": false,
          "internalType": "uint256[]",
          "name": "values",
          "type": "uint256[]"
        }
      ],
      "name": "TransferBatch",
      "type": "event"
    },
    {
      "anonymous": false,
      "inputs": [
        {
          "indexed": true,
          "internalType": "address",
          "name": "operator",
          "type": "address"
        },
        {
          "indexed": true,
          "internalType": "address",
          "name": "from",
          "type": "address"
        },
        {
          "indexed": true,
          "internalType": "address",
          "name": "to",
          "type": "address"
        },
        {
          "indexed": false,
          "internalType": "uint256",
          "name": "id",
          "type": "uint256"
        },
        {
          "indexed": false,
          "internalType": "uint256",
          "name": "value",
          "type": "uint256"
        }
      ],
      "name": "TransferSingle",
      "type": "event"
    },
    {
      "anonymous": false,
      "inputs": [
        {
          "indexed": false,
          "internalType": "string",
          "name": "value",
          "type": "string"
        },
        {
          "indexed": true,
          "internalType": "uint256",
          "name": "id",
          "type": "uint256"
        }
      ],
      "name": "URI",
      "type": "event"
    },
    {
      "inputs": [],
      "name": "_author",
      "outputs": [
        {
          "internalType": "address payable",
          "name": "",
          "type": "address"
        }
      ],
      "stateMutability": "view",
      "type": "function"
    },
    {
      "inputs": [],
      "name": "_bookID",
      "outputs": [
        {
          "internalType": "uint256",
          "name": "",
          "type": "uint256"
        }
      ],
      "stateMutability": "view",
      "type": "function"
    },
    {
      "inputs": [],
      "name": "_price",
      "outputs": [
        {
          "internalType": "uint256",
          "name": "",
          "type": "uint256"
        }
      ],
      "stateMutability": "view",
      "type": "function"
    },
    {
      "inputs": [
        {
          "internalType": "address",
          "name": "account",
          "type": "address"
        },
        {
          "internalType": "uint256",
          "name": "id",
          "type": "uint256"
        }
      ],
      "name": "balanceOf",
      "outputs": [
        {
          "internalType": "uint256",
          "name": "",
          "type": "uint256"
        }
      ],
      "stateMutability": "view",
      "type": "function"
    },
    {
      "inputs": [
        {
          "internalType": "address[]",
          "name": "accounts",
          "type": "address[]"
        },
        {
          "internalType": "uint256[]",
          "name": "ids",
          "type": "uint256[]"
        }
      ],
      "name": "balanceOfBatch",
      "outputs": [
        {
          "internalType": "uint256[]",
          "name": "",
          "type": "uint256[]"
        }
      ],
      "stateMutability": "view",
      "type": "function"
    },
    {
      "inputs": [],
      "name": "getAuthor",
      "outputs": [
        {
          "internalType": "address",
          "name": "",
          "type": "address"
        }
      ],
      "stateMutability": "view",
      "type": "function"
    },
    {
      "inputs": [],
      "name": "getBookURI",
      "outputs": [
        {
          "internalType": "string",
          "name": "bookURI",
          "type": "string"
        }
      ],
      "stateMutability": "view",
      "type": "function"
    },
    {
      "inputs": [],
      "name": "getFreeBooksPrinted",
      "outputs": [
        {
          "internalType": "uint256",
          "name": "",
          "type": "uint256"
        }
      ],
      "stateMutability": "view",
      "type": "function"
    },
    {
      "inputs": [],
      "name": "getPricedBooksPrinted",
      "outputs": [
        {
          "internalType": "uint256",
          "name": "",
          "type": "uint256"
        }
      ],
      "stateMutability": "view",
      "type": "function"
    },
    {
      "inputs": [
        {
          "internalType": "address",
          "name": "account",
          "type": "address"
        },
        {
          "internalType": "address",
          "name": "operator",
          "type": "address"
        }
      ],
      "name": "isApprovedForAll",
      "outputs": [
        {
          "internalType": "bool",
          "name": "",
          "type": "bool"
        }
      ],
      "stateMutability": "view",
      "type": "function"
    },
    {
      "inputs": [
        {
          "internalType": "address",
          "name": "to",
          "type": "address"
        }
      ],
      "name": "printFreeVersion",
      "outputs": [],
      "stateMutability": "nonpayable",
      "type": "function"
    },
    {
      "inputs": [
        {
          "internalType": "address",
          "name": "to",
          "type": "address"
        }
      ],
      "name": "printPaidVersion",
      "outputs": [
        {
          "internalType": "uint256",
          "name": "",
          "type": "uint256"
        }
      ],
      "stateMutability": "nonpayable",
      "type": "function"
    },
    {
      "inputs": [
        {
          "internalType": "address",
          "name": "from",
          "type": "address"
        },
        {
          "internalType": "address",
          "name": "to",
          "type": "address"
        },
        {
          "internalType": "uint256[]",
          "name": "ids",
          "type": "uint256[]"
        },
        {
          "internalType": "uint256[]",
          "name": "amounts",
          "type": "uint256[]"
        },
        {
          "internalType": "bytes",
          "name": "data",
          "type": "bytes"
        }
      ],
      "name": "safeBatchTransferFrom",
      "outputs": [],
      "stateMutability": "nonpayable",
      "type": "function"
    },
    {
      "inputs": [
        {
          "internalType": "address",
          "name": "from",
          "type": "address"
        },
        {
          "internalType": "address",
          "name": "to",
          "type": "address"
        },
        {
          "internalType": "uint256",
          "name": "id",
          "type": "uint256"
        },
        {
          "internalType": "uint256",
          "name": "amount",
          "type": "uint256"
        },
        {
          "internalType": "bytes",
          "name": "data",
          "type": "bytes"
        }
      ],
      "name": "safeTransferFrom",
      "outputs": [],
      "stateMutability": "nonpayable",
      "type": "function"
    },
    {
      "inputs": [
        {
          "internalType": "address",
          "name": "operator",
          "type": "address"
        },
        {
          "internalType": "bool",
          "name": "approved",
          "type": "bool"
        }
      ],
      "name": "setApprovalForAll",
      "outputs": [],
      "stateMutability": "nonpayable",
      "type": "function"
    },
    {
      "inputs": [
        {
          "internalType": "uint256",
          "name": "price",
          "type": "uint256"
        }
      ],
      "name": "setPrice",
      "outputs": [],
      "stateMutability": "nonpayable",
      "type": "function"
    },
    {
      "inputs": [
        {
          "internalType": "int256",
          "name": "limit",
          "type": "int256"
        }
      ],
      "name": "setPricedBookSupplyLimit",
      "outputs": [],
      "stateMutability": "nonpayable",
      "type": "function"
    },
    {
      "inputs": [
        {
          "internalType": "bytes4",
          "name": "interfaceId",
          "type": "bytes4"
        }
      ],
      "name": "supportsInterface",
      "outputs": [
        {
          "internalType": "bool",
          "name": "",
          "type": "bool"
        }
      ],
      "stateMutability": "view",
      "type": "function"
    },
    {
      "inputs": [
        {
          "internalType": "address",
          "name": "from",
          "type": "address"
        },
        {
          "internalType": "address",
          "name": "to",
          "type": "address"
        },
        {
          "internalType": "uint256",
          "name": "eBookId",
          "type": "uint256"
        }
      ],
      "name": "transfer",
      "outputs": [],
      "stateMutability": "nonpayable",
      "type": "function"
    },
    {
      "inputs": [
        {
          "internalType": "uint256",
          "name": "",
          "type": "uint256"
        }
      ],
      "name": "uri",
      "outputs": [
        {
          "internalType": "string",
          "name": "",
          "type": "string"
        }
      ],
      "stateMutability": "view",
      "type": "function"
    }
  ],
  "bytecode": "0x60e060405260006008553480156200001657600080fd5b50604051620044543803806200445483398181016040528101906200003c9190620007d0565b826200004e816200014f60201b60201c565b50600160038190555085608081815250508473ffffffffffffffffffffffffffffffffffffffff1660a08173ffffffffffffffffffffffffffffffffffffffff1660601b815250508360048190555081600781905550620000f08560085460016040518060400160405280600d81526020017f417574686f72277320436f7079000000000000000000000000000000000000008152506200016b60201b60201c565b60016005600082825462000105919062000b4a565b925050819055508073ffffffffffffffffffffffffffffffffffffffff1660c08173ffffffffffffffffffffffffffffffffffffffff1660601b8152505050505050505062000f84565b80600290805190602001906200016792919062000626565b5050565b600073ffffffffffffffffffffffffffffffffffffffff168473ffffffffffffffffffffffffffffffffffffffff161415620001de576040517f08c379a0000000000000000000000000000000000000000000000000000000008152600401620001d59062000a64565b60405180910390fd5b6000620001f06200033060201b60201c565b905062000229816000876200020b886200033860201b60201c565b6200021c886200033860201b60201c565b876200040160201b60201c565b8260008086815260200190815260200160002060008773ffffffffffffffffffffffffffffffffffffffff1673ffffffffffffffffffffffffffffffffffffffff16815260200190815260200160002060008282546200028a919062000b4a565b925050819055508473ffffffffffffffffffffffffffffffffffffffff16600073ffffffffffffffffffffffffffffffffffffffff168273ffffffffffffffffffffffffffffffffffffffff167fc3d58168c5ae7397731d063d5bbf3d657854427343f4c083240f7aacaa2d0f6287876040516200030a92919062000a86565b60405180910390a462000329816000878787876200040960201b60201c565b5050505050565b600033905090565b60606000600167ffffffffffffffff8111156200037e577f4e487b7100000000000000000000000000000000000000000000000000000000600052604160045260246000fd5b604051908082528060200260200182016040528015620003ad5781602001602082028036833780820191505090505b5090508281600081518110620003ec577f4e487b7100000000000000000000000000000000000000000000000000000000600052603260045260246000fd5b60200260200101818152505080915050919050565b505050505050565b620004358473ffffffffffffffffffffffffffffffffffffffff166200061360201b6200103d1760201c565b156200060b578373ffffffffffffffffffffffffffffffffffffffff1663f23a6e6187878686866040518663ffffffff1660e01b81526004016200047e95949392919062000998565b602060405180830381600087803b1580156200049957600080fd5b505af1925050508015620004cd57506040513d601f19601f82011682018060405250810190620004ca9190620007a4565b60015b6200057f57620004dc62000d4a565b806308c379a01415620005405750620004f462000e7a565b8062000501575062000542565b806040517f08c379a0000000000000000000000000000000000000000000000000000000008152600401620005379190620009fc565b60405180910390fd5b505b6040517f08c379a0000000000000000000000000000000000000000000000000000000008152600401620005769062000a20565b60405180910390fd5b63f23a6e6160e01b7bffffffffffffffffffffffffffffffffffffffffffffffffffffffff1916817bffffffffffffffffffffffffffffffffffffffffffffffffffffffff19161462000609576040517f08c379a0000000000000000000000000000000000000000000000000000000008152600401620006009062000a42565b60405180910390fd5b505b505050505050565b600080823b905060008111915050919050565b828054620006349062000c51565b90600052602060002090601f016020900481019282620006585760008555620006a4565b82601f106200067357805160ff1916838001178555620006a4565b82800160010185558215620006a4579182015b82811115620006a357825182559160200191906001019062000686565b5b509050620006b39190620006b7565b5090565b5b80821115620006d2576000816000905550600101620006b8565b5090565b6000620006ed620006e78462000adc565b62000ab3565b9050828152602081018484840111156200070657600080fd5b6200071384828562000c1b565b509392505050565b6000815190506200072c8162000f1c565b92915050565b600081519050620007438162000f36565b92915050565b6000815190506200075a8162000f50565b92915050565b600082601f8301126200077257600080fd5b815162000784848260208601620006d6565b91505092915050565b6000815190506200079e8162000f6a565b92915050565b600060208284031215620007b757600080fd5b6000620007c78482850162000732565b91505092915050565b60008060008060008060c08789031215620007ea57600080fd5b6000620007fa89828a016200078d565b96505060206200080d89828a016200071b565b95505060406200082089828a016200078d565b945050606087015167ffffffffffffffff8111156200083e57600080fd5b6200084c89828a0162000760565b93505060806200085f89828a0162000749565b92505060a06200087289828a016200071b565b9150509295509295509295565b6200088a8162000ba7565b82525050565b60006200089d8262000b12565b620008a9818562000b28565b9350620008bb81856020860162000c1b565b620008c68162000d6f565b840191505092915050565b6000620008de8262000b1d565b620008ea818562000b39565b9350620008fc81856020860162000c1b565b620009078162000d6f565b840191505092915050565b60006200092160348362000b39565b91506200092e8262000d8d565b604082019050919050565b60006200094860288362000b39565b9150620009558262000ddc565b604082019050919050565b60006200096f60218362000b39565b91506200097c8262000e2b565b604082019050919050565b620009928162000c11565b82525050565b600060a082019050620009af60008301886200087f565b620009be60208301876200087f565b620009cd604083018662000987565b620009dc606083018562000987565b8181036080830152620009f0818462000890565b90509695505050505050565b6000602082019050818103600083015262000a188184620008d1565b905092915050565b6000602082019050818103600083015262000a3b8162000912565b9050919050565b6000602082019050818103600083015262000a5d8162000939565b9050919050565b6000602082019050818103600083015262000a7f8162000960565b9050919050565b600060408201905062000a9d600083018562000987565b62000aac602083018462000987565b9392505050565b600062000abf62000ad2565b905062000acd828262000c87565b919050565b6000604051905090565b600067ffffffffffffffff82111562000afa5762000af962000d1b565b5b62000b058262000d6f565b9050602081019050919050565b600081519050919050565b600081519050919050565b600082825260208201905092915050565b600082825260208201905092915050565b600062000b578262000c11565b915062000b648362000c11565b9250827fffffffffffffffffffffffffffffffffffffffffffffffffffffffffffffffff0382111562000b9c5762000b9b62000cbd565b5b828201905092915050565b600062000bb48262000bf1565b9050919050565b60007fffffffff0000000000000000000000000000000000000000000000000000000082169050919050565b6000819050919050565b600073ffffffffffffffffffffffffffffffffffffffff82169050919050565b6000819050919050565b60005b8381101562000c3b57808201518184015260208101905062000c1e565b8381111562000c4b576000848401525b50505050565b6000600282049050600182168062000c6a57607f821691505b6020821081141562000c815762000c8062000cec565b5b50919050565b62000c928262000d6f565b810181811067ffffffffffffffff8211171562000cb45762000cb362000d1b565b5b80604052505050565b7f4e487b7100000000000000000000000000000000000000000000000000000000600052601160045260246000fd5b7f4e487b7100000000000000000000000000000000000000000000000000000000600052602260045260246000fd5b7f4e487b7100000000000000000000000000000000000000000000000000000000600052604160045260246000fd5b600060033d111562000d6c5760046000803e62000d6960005162000d80565b90505b90565b6000601f19601f8301169050919050565b60008160e01c9050919050565b7f455243313135353a207472616e7366657220746f206e6f6e204552433131353560008201527f526563656976657220696d706c656d656e746572000000000000000000000000602082015250565b7f455243313135353a204552433131353552656365697665722072656a6563746560008201527f6420746f6b656e73000000000000000000000000000000000000000000000000602082015250565b7f455243313135353a206d696e7420746f20746865207a65726f2061646472657360008201527f7300000000000000000000000000000000000000000000000000000000000000602082015250565b600060443d101562000e8c5762000f19565b62000e9662000ad2565b60043d036004823e80513d602482011167ffffffffffffffff8211171562000ec057505062000f19565b808201805167ffffffffffffffff81111562000ee0575050505062000f19565b80602083010160043d03850181111562000eff57505050505062000f19565b62000f108260200185018662000c87565b82955050505050505b90565b62000f278162000ba7565b811462000f3357600080fd5b50565b62000f418162000bbb565b811462000f4d57600080fd5b50565b62000f5b8162000be7565b811462000f6757600080fd5b50565b62000f758162000c11565b811462000f8157600080fd5b50565b60805160a05160601c60c05160601c61347062000fe460003960006105570152600081816105e80152818161064c01528181610773015281816109a001528181610bc30152610c370152600081816106970152610ee601526134706000f3fe608060405234801561001057600080fd5b506004361061012b5760003560e01c8063758a8a76116100ad578063beabacc811610071578063beabacc814610330578063c803ca7f1461034c578063d16077121461037c578063e985e9c51461039a578063f242432a146103ca5761012b565b8063758a8a76146102a057806391b7f5ed146102be578063a22cb465146102da578063a5faa125146102f6578063b29a77cf146103145761012b565b8063235b6ea1116100f4578063235b6ea1146101fa5780632eb2c2d6146102185780634cb6f12e146102345780634dcb9476146102525780634e1273f4146102705761012b565b8062fdd58e1461013057806301ffc9a7146101605780630e89341c1461019057806310700264146101c0578063145b5d1e146101dc575b600080fd5b61014a6004803603810190610145919061222c565b6103e6565b6040516101579190612aac565b60405180910390f35b61017a600480360381019061017591906122d4565b6104af565b604051610187919061284f565b60405180910390f35b6101aa60048036038101906101a5919061234f565b6104c1565b6040516101b7919061286a565b60405180910390f35b6101da60048036038101906101d59190611fee565b610555565b005b6101e4610690565b6040516101f1919061286a565b60405180910390f35b6102026106c0565b60405161020f9190612aac565b60405180910390f35b610232600480360381019061022d9190612053565b6106c6565b005b61023c610767565b6040516102499190612aac565b60405180910390f35b61025a610771565b6040516102679190612719565b60405180910390f35b61028a60048036038101906102859190612268565b610795565b60405161029791906127f6565b60405180910390f35b6102a8610946565b6040516102b59190612aac565b60405180910390f35b6102d860048036038101906102d3919061234f565b610950565b005b6102f460048036038101906102ef91906121f0565b610a3e565b005b6102fe610bbf565b60405161030b91906126fe565b60405180910390f35b61032e60048036038101906103299190612326565b610be7565b005b61034a60048036038101906103459190612112565b610d41565b005b61036660048036038101906103619190611fee565b610d63565b6040516103739190612aac565b60405180910390f35b610384610ee4565b6040516103919190612aac565b60405180910390f35b6103b460048036038101906103af9190612017565b610f08565b6040516103c1919061284f565b60405180910390f35b6103e460048036038101906103df9190612161565b610f9c565b005b60008073ffffffffffffffffffffffffffffffffffffffff168373ffffffffffffffffffffffffffffffffffffffff161415610457576040517f08c379a000000000000000000000000000000000000000000000000000000000815260040161044e906128cc565b60405180910390fd5b60008083815260200190815260200160002060008473ffffffffffffffffffffffffffffffffffffffff1673ffffffffffffffffffffffffffffffffffffffff16815260200190815260200160002054905092915050565b60006104ba82611050565b9050919050565b6060600280546104d090612d37565b80601f01602080910402602001604051908101604052809291908181526020018280546104fc90612d37565b80156105495780601f1061051e57610100808354040283529160200191610549565b820191906000526020600020905b81548152906001019060200180831161052c57829003601f168201915b50505050509050919050565b7f000000000000000000000000000000000000000000000000000000000000000073ffffffffffffffffffffffffffffffffffffffff163373ffffffffffffffffffffffffffffffffffffffff16146105e3576040517f08c379a00000000000000000000000000000000000000000000000000000000081526004016105da90612a0c565b60405180910390fd5b6106477f000000000000000000000000000000000000000000000000000000000000000060085460016040518060400160405280600c81526020017f53747564656e7420436f70790000000000000000000000000000000000000000815250611132565b6106737f0000000000000000000000000000000000000000000000000000000000000000826000610d41565b6001600560008282546106869190612c0f565b9250508190555050565b60606106bb7f00000000000000000000000000000000000000000000000000000000000000006104c1565b905090565b60045481565b6106ce6112c8565b73ffffffffffffffffffffffffffffffffffffffff168573ffffffffffffffffffffffffffffffffffffffff16148061071457506107138561070e6112c8565b610f08565b5b610753576040517f08c379a000000000000000000000000000000000000000000000000000000000815260040161074a9061298c565b60405180910390fd5b61076085858585856112d0565b5050505050565b6000600554905090565b7f000000000000000000000000000000000000000000000000000000000000000081565b606081518351146107db576040517f08c379a00000000000000000000000000000000000000000000000000000000081526004016107d290612a2c565b60405180910390fd5b6000835167ffffffffffffffff81111561081e577f4e487b7100000000000000000000000000000000000000000000000000000000600052604160045260246000fd5b60405190808252806020026020018201604052801561084c5781602001602082028036833780820191505090505b50905060005b845181101561093b576108e5858281518110610897577f4e487b7100000000000000000000000000000000000000000000000000000000600052603260045260246000fd5b60200260200101518583815181106108d8577f4e487b7100000000000000000000000000000000000000000000000000000000600052603260045260246000fd5b60200260200101516103e6565b82828151811061091e577f4e487b7100000000000000000000000000000000000000000000000000000000600052603260045260246000fd5b6020026020010181815250508061093490612d9a565b9050610852565b508091505092915050565b6000600654905090565b60026003541415610996576040517f08c379a000000000000000000000000000000000000000000000000000000000815260040161098d90612a8c565b60405180910390fd5b60026003819055507f000000000000000000000000000000000000000000000000000000000000000073ffffffffffffffffffffffffffffffffffffffff163373ffffffffffffffffffffffffffffffffffffffff1614610a2c576040517f08c379a0000000000000000000000000000000000000000000000000000000008152600401610a239061294c565b60405180910390fd5b80600481905550600160038190555050565b8173ffffffffffffffffffffffffffffffffffffffff16610a5d6112c8565b73ffffffffffffffffffffffffffffffffffffffff161415610ab4576040517f08c379a0000000000000000000000000000000000000000000000000000000008152600401610aab906129ec565b60405180910390fd5b8060016000610ac16112c8565b73ffffffffffffffffffffffffffffffffffffffff1673ffffffffffffffffffffffffffffffffffffffff16815260200190815260200160002060008473ffffffffffffffffffffffffffffffffffffffff1673ffffffffffffffffffffffffffffffffffffffff16815260200190815260200160002060006101000a81548160ff0219169083151502179055508173ffffffffffffffffffffffffffffffffffffffff16610b6e6112c8565b73ffffffffffffffffffffffffffffffffffffffff167f17307eab39ab6107e8899845ad3d59bd9653f200f220920489ca2b5937696c3183604051610bb3919061284f565b60405180910390a35050565b60007f0000000000000000000000000000000000000000000000000000000000000000905090565b60026003541415610c2d576040517f08c379a0000000000000000000000000000000000000000000000000000000008152600401610c2490612a8c565b60405180910390fd5b60026003819055507f000000000000000000000000000000000000000000000000000000000000000073ffffffffffffffffffffffffffffffffffffffff163373ffffffffffffffffffffffffffffffffffffffff1614610cc3576040517f08c379a0000000000000000000000000000000000000000000000000000000008152600401610cba9061294c565b60405180910390fd5b7fffffffffffffffffffffffffffffffffffffffffffffffffffffffffffffffff8114610d2f576006548113610d2e576040517f08c379a0000000000000000000000000000000000000000000000000000000008152600401610d25906129cc565b60405180910390fd5b5b80600781905550600160038190555050565b610d5e838383600160405180602001604052806000815250611630565b505050565b600060026003541415610dab576040517f08c379a0000000000000000000000000000000000000000000000000000000008152600401610da290612a8c565b60405180910390fd5b600260038190555060006007541415610e095760006007541415610e04576040517f08c379a0000000000000000000000000000000000000000000000000000000008152600401610dfb906128ec565b60405180910390fd5b610e5c565b60006007541315610e5b5760075460065410610e5a576040517f08c379a0000000000000000000000000000000000000000000000000000000008152600401610e519061292c565b60405180910390fd5b5b5b610e6660096118b2565b610eb182610e7460096118c8565b60016040518060400160405280600e81526020017f50757263686173656420436f7079000000000000000000000000000000000000815250611132565b610ebb60096118c8565b9050600160066000828254610ed09190612c0f565b925050819055506001600381905550919050565b7f000000000000000000000000000000000000000000000000000000000000000081565b6000600160008473ffffffffffffffffffffffffffffffffffffffff1673ffffffffffffffffffffffffffffffffffffffff16815260200190815260200160002060008373ffffffffffffffffffffffffffffffffffffffff1673ffffffffffffffffffffffffffffffffffffffff16815260200190815260200160002060009054906101000a900460ff16905092915050565b610fa46112c8565b73ffffffffffffffffffffffffffffffffffffffff168573ffffffffffffffffffffffffffffffffffffffff161480610fea5750610fe985610fe46112c8565b610f08565b5b611029576040517f08c379a00000000000000000000000000000000000000000000000000000000081526004016110209061290c565b60405180910390fd5b6110368585858585611630565b5050505050565b600080823b905060008111915050919050565b60007fd9b67a26000000000000000000000000000000000000000000000000000000007bffffffffffffffffffffffffffffffffffffffffffffffffffffffff1916827bffffffffffffffffffffffffffffffffffffffffffffffffffffffff1916148061111b57507f0e89341c000000000000000000000000000000000000000000000000000000007bffffffffffffffffffffffffffffffffffffffffffffffffffffffff1916827bffffffffffffffffffffffffffffffffffffffffffffffffffffffff1916145b8061112b575061112a826118d6565b5b9050919050565b600073ffffffffffffffffffffffffffffffffffffffff168473ffffffffffffffffffffffffffffffffffffffff1614156111a2576040517f08c379a000000000000000000000000000000000000000000000000000000000815260040161119990612a6c565b60405180910390fd5b60006111ac6112c8565b90506111cd816000876111be88611940565b6111c788611940565b87611a06565b8260008086815260200190815260200160002060008773ffffffffffffffffffffffffffffffffffffffff1673ffffffffffffffffffffffffffffffffffffffff168152602001908152602001600020600082825461122c9190612c0f565b925050819055508473ffffffffffffffffffffffffffffffffffffffff16600073ffffffffffffffffffffffffffffffffffffffff168273ffffffffffffffffffffffffffffffffffffffff167fc3d58168c5ae7397731d063d5bbf3d657854427343f4c083240f7aacaa2d0f6287876040516112aa929190612ac7565b60405180910390a46112c181600087878787611a0e565b5050505050565b600033905090565b8151835114611314576040517f08c379a000000000000000000000000000000000000000000000000000000000815260040161130b90612a4c565b60405180910390fd5b600073ffffffffffffffffffffffffffffffffffffffff168473ffffffffffffffffffffffffffffffffffffffff161415611384576040517f08c379a000000000000000000000000000000000000000000000000000000000815260040161137b9061296c565b60405180910390fd5b600061138e6112c8565b905061139e818787878787611a06565b60005b845181101561159b5760008582815181106113e5577f4e487b7100000000000000000000000000000000000000000000000000000000600052603260045260246000fd5b60200260200101519050600085838151811061142a577f4e487b7100000000000000000000000000000000000000000000000000000000600052603260045260246000fd5b60200260200101519050600080600084815260200190815260200160002060008b73ffffffffffffffffffffffffffffffffffffffff1673ffffffffffffffffffffffffffffffffffffffff168152602001908152602001600020549050818110156114cb576040517f08c379a00000000000000000000000000000000000000000000000000000000081526004016114c2906129ac565b60405180910390fd5b81810360008085815260200190815260200160002060008c73ffffffffffffffffffffffffffffffffffffffff1673ffffffffffffffffffffffffffffffffffffffff168152602001908152602001600020819055508160008085815260200190815260200160002060008b73ffffffffffffffffffffffffffffffffffffffff1673ffffffffffffffffffffffffffffffffffffffff16815260200190815260200160002060008282546115809190612c0f565b925050819055505050508061159490612d9a565b90506113a1565b508473ffffffffffffffffffffffffffffffffffffffff168673ffffffffffffffffffffffffffffffffffffffff168273ffffffffffffffffffffffffffffffffffffffff167f4a39dc06d4c0dbc64b70af90fd698a233a518aa5d07e595d983b8c0526c8f7fb8787604051611612929190612818565b60405180910390a4611628818787878787611bf5565b505050505050565b600073ffffffffffffffffffffffffffffffffffffffff168473ffffffffffffffffffffffffffffffffffffffff1614156116a0576040517f08c379a00000000000000000000000000000000000000000000000000000000081526004016116979061296c565b60405180910390fd5b60006116aa6112c8565b90506116ca8187876116bb88611940565b6116c488611940565b87611a06565b600080600086815260200190815260200160002060008873ffffffffffffffffffffffffffffffffffffffff1673ffffffffffffffffffffffffffffffffffffffff16815260200190815260200160002054905083811015611761576040517f08c379a0000000000000000000000000000000000000000000000000000000008152600401611758906129ac565b60405180910390fd5b83810360008087815260200190815260200160002060008973ffffffffffffffffffffffffffffffffffffffff1673ffffffffffffffffffffffffffffffffffffffff168152602001908152602001600020819055508360008087815260200190815260200160002060008873ffffffffffffffffffffffffffffffffffffffff1673ffffffffffffffffffffffffffffffffffffffff16815260200190815260200160002060008282546118169190612c0f565b925050819055508573ffffffffffffffffffffffffffffffffffffffff168773ffffffffffffffffffffffffffffffffffffffff168373ffffffffffffffffffffffffffffffffffffffff167fc3d58168c5ae7397731d063d5bbf3d657854427343f4c083240f7aacaa2d0f628888604051611893929190612ac7565b60405180910390a46118a9828888888888611a0e565b50505050505050565b6001816000016000828254019250508190555050565b600081600001549050919050565b60007f01ffc9a7000000000000000000000000000000000000000000000000000000007bffffffffffffffffffffffffffffffffffffffffffffffffffffffff1916827bffffffffffffffffffffffffffffffffffffffffffffffffffffffff1916149050919050565b60606000600167ffffffffffffffff811115611985577f4e487b7100000000000000000000000000000000000000000000000000000000600052604160045260246000fd5b6040519080825280602002602001820160405280156119b35781602001602082028036833780820191505090505b50905082816000815181106119f1577f4e487b7100000000000000000000000000000000000000000000000000000000600052603260045260246000fd5b60200260200101818152505080915050919050565b505050505050565b611a2d8473ffffffffffffffffffffffffffffffffffffffff1661103d565b15611bed578373ffffffffffffffffffffffffffffffffffffffff1663f23a6e6187878686866040518663ffffffff1660e01b8152600401611a7395949392919061279c565b602060405180830381600087803b158015611a8d57600080fd5b505af1925050508015611abe57506040513d601f19601f82011682018060405250810190611abb91906122fd565b60015b611b6457611aca612e70565b806308c379a01415611b275750611adf613331565b80611aea5750611b29565b806040517f08c379a0000000000000000000000000000000000000000000000000000000008152600401611b1e919061286a565b60405180910390fd5b505b6040517f08c379a0000000000000000000000000000000000000000000000000000000008152600401611b5b9061288c565b60405180910390fd5b63f23a6e6160e01b7bffffffffffffffffffffffffffffffffffffffffffffffffffffffff1916817bffffffffffffffffffffffffffffffffffffffffffffffffffffffff191614611beb576040517f08c379a0000000000000000000000000000000000000000000000000000000008152600401611be2906128ac565b60405180910390fd5b505b505050505050565b611c148473ffffffffffffffffffffffffffffffffffffffff1661103d565b15611dd4578373ffffffffffffffffffffffffffffffffffffffff1663bc197c8187878686866040518663ffffffff1660e01b8152600401611c5a959493929190612734565b602060405180830381600087803b158015611c7457600080fd5b505af1925050508015611ca557506040513d601f19601f82011682018060405250810190611ca291906122fd565b60015b611d4b57611cb1612e70565b806308c379a01415611d0e5750611cc6613331565b80611cd15750611d10565b806040517f08c379a0000000000000000000000000000000000000000000000000000000008152600401611d05919061286a565b60405180910390fd5b505b6040517f08c379a0000000000000000000000000000000000000000000000000000000008152600401611d429061288c565b60405180910390fd5b63bc197c8160e01b7bffffffffffffffffffffffffffffffffffffffffffffffffffffffff1916817bffffffffffffffffffffffffffffffffffffffffffffffffffffffff191614611dd2576040517f08c379a0000000000000000000000000000000000000000000000000000000008152600401611dc9906128ac565b60405180910390fd5b505b505050505050565b6000611def611dea84612b15565b612af0565b90508083825260208201905082856020860282011115611e0e57600080fd5b60005b85811015611e3e5781611e248882611ef2565b845260208401935060208301925050600181019050611e11565b5050509392505050565b6000611e5b611e5684612b41565b612af0565b90508083825260208201905082856020860282011115611e7a57600080fd5b60005b85811015611eaa5781611e908882611fd9565b845260208401935060208301925050600181019050611e7d565b5050509392505050565b6000611ec7611ec284612b6d565b612af0565b905082815260208101848484011115611edf57600080fd5b611eea848285612cf5565b509392505050565b600081359050611f01816133c7565b92915050565b600082601f830112611f1857600080fd5b8135611f28848260208601611ddc565b91505092915050565b600082601f830112611f4257600080fd5b8135611f52848260208601611e48565b91505092915050565b600081359050611f6a816133de565b92915050565b600081359050611f7f816133f5565b92915050565b600081519050611f94816133f5565b92915050565b600082601f830112611fab57600080fd5b8135611fbb848260208601611eb4565b91505092915050565b600081359050611fd38161340c565b92915050565b600081359050611fe881613423565b92915050565b60006020828403121561200057600080fd5b600061200e84828501611ef2565b91505092915050565b6000806040838503121561202a57600080fd5b600061203885828601611ef2565b925050602061204985828601611ef2565b9150509250929050565b600080600080600060a0868803121561206b57600080fd5b600061207988828901611ef2565b955050602061208a88828901611ef2565b945050604086013567ffffffffffffffff8111156120a757600080fd5b6120b388828901611f31565b935050606086013567ffffffffffffffff8111156120d057600080fd5b6120dc88828901611f31565b925050608086013567ffffffffffffffff8111156120f957600080fd5b61210588828901611f9a565b9150509295509295909350565b60008060006060848603121561212757600080fd5b600061213586828701611ef2565b935050602061214686828701611ef2565b925050604061215786828701611fd9565b9150509250925092565b600080600080600060a0868803121561217957600080fd5b600061218788828901611ef2565b955050602061219888828901611ef2565b94505060406121a988828901611fd9565b93505060606121ba88828901611fd9565b925050608086013567ffffffffffffffff8111156121d757600080fd5b6121e388828901611f9a565b9150509295509295909350565b6000806040838503121561220357600080fd5b600061221185828601611ef2565b925050602061222285828601611f5b565b9150509250929050565b6000806040838503121561223f57600080fd5b600061224d85828601611ef2565b925050602061225e85828601611fd9565b9150509250929050565b6000806040838503121561227b57600080fd5b600083013567ffffffffffffffff81111561229557600080fd5b6122a185828601611f07565b925050602083013567ffffffffffffffff8111156122be57600080fd5b6122ca85828601611f31565b9150509250929050565b6000602082840312156122e657600080fd5b60006122f484828501611f70565b91505092915050565b60006020828403121561230f57600080fd5b600061231d84828501611f85565b91505092915050565b60006020828403121561233857600080fd5b600061234684828501611fc4565b91505092915050565b60006020828403121561236157600080fd5b600061236f84828501611fd9565b91505092915050565b600061238483836126e0565b60208301905092915050565b61239981612c77565b82525050565b6123a881612c65565b82525050565b60006123b982612bae565b6123c38185612bdc565b93506123ce83612b9e565b8060005b838110156123ff5781516123e68882612378565b97506123f183612bcf565b9250506001810190506123d2565b5085935050505092915050565b61241581612c89565b82525050565b600061242682612bb9565b6124308185612bed565b9350612440818560208601612d04565b61244981612e92565b840191505092915050565b600061245f82612bc4565b6124698185612bfe565b9350612479818560208601612d04565b61248281612e92565b840191505092915050565b600061249a603483612bfe565b91506124a582612eb0565b604082019050919050565b60006124bd602883612bfe565b91506124c882612eff565b604082019050919050565b60006124e0602b83612bfe565b91506124eb82612f4e565b604082019050919050565b6000612503601683612bfe565b915061250e82612f9d565b602082019050919050565b6000612526602983612bfe565b915061253182612fc6565b604082019050919050565b6000612549602283612bfe565b915061255482613015565b604082019050919050565b600061256c601f83612bfe565b915061257782613064565b602082019050919050565b600061258f602583612bfe565b915061259a8261308d565b604082019050919050565b60006125b2603283612bfe565b91506125bd826130dc565b604082019050919050565b60006125d5602a83612bfe565b91506125e08261312b565b604082019050919050565b60006125f8601583612bfe565b91506126038261317a565b602082019050919050565b600061261b602983612bfe565b9150612626826131a3565b604082019050919050565b600061263e601583612bfe565b9150612649826131f2565b602082019050919050565b6000612661602983612bfe565b915061266c8261321b565b604082019050919050565b6000612684602883612bfe565b915061268f8261326a565b604082019050919050565b60006126a7602183612bfe565b91506126b2826132b9565b604082019050919050565b60006126ca601f83612bfe565b91506126d582613308565b602082019050919050565b6126e981612ceb565b82525050565b6126f881612ceb565b82525050565b6000602082019050612713600083018461239f565b92915050565b600060208201905061272e6000830184612390565b92915050565b600060a082019050612749600083018861239f565b612756602083018761239f565b818103604083015261276881866123ae565b9050818103606083015261277c81856123ae565b90508181036080830152612790818461241b565b90509695505050505050565b600060a0820190506127b1600083018861239f565b6127be602083018761239f565b6127cb60408301866126ef565b6127d860608301856126ef565b81810360808301526127ea818461241b565b90509695505050505050565b6000602082019050818103600083015261281081846123ae565b905092915050565b6000604082019050818103600083015261283281856123ae565b9050818103602083015261284681846123ae565b90509392505050565b6000602082019050612864600083018461240c565b92915050565b600060208201905081810360008301526128848184612454565b905092915050565b600060208201905081810360008301526128a58161248d565b9050919050565b600060208201905081810360008301526128c5816124b0565b9050919050565b600060208201905081810360008301526128e5816124d3565b9050919050565b60006020820190508181036000830152612905816124f6565b9050919050565b6000602082019050818103600083015261292581612519565b9050919050565b600060208201905081810360008301526129458161253c565b9050919050565b600060208201905081810360008301526129658161255f565b9050919050565b6000602082019050818103600083015261298581612582565b9050919050565b600060208201905081810360008301526129a5816125a5565b9050919050565b600060208201905081810360008301526129c5816125c8565b9050919050565b600060208201905081810360008301526129e5816125eb565b9050919050565b60006020820190508181036000830152612a058161260e565b9050919050565b60006020820190508181036000830152612a2581612631565b9050919050565b60006020820190508181036000830152612a4581612654565b9050919050565b60006020820190508181036000830152612a6581612677565b9050919050565b60006020820190508181036000830152612a858161269a565b9050919050565b60006020820190508181036000830152612aa5816126bd565b9050919050565b6000602082019050612ac160008301846126ef565b92915050565b6000604082019050612adc60008301856126ef565b612ae960208301846126ef565b9392505050565b6000612afa612b0b565b9050612b068282612d69565b919050565b6000604051905090565b600067ffffffffffffffff821115612b3057612b2f612e41565b5b602082029050602081019050919050565b600067ffffffffffffffff821115612b5c57612b5b612e41565b5b602082029050602081019050919050565b600067ffffffffffffffff821115612b8857612b87612e41565b5b612b9182612e92565b9050602081019050919050565b6000819050602082019050919050565b600081519050919050565b600081519050919050565b600081519050919050565b6000602082019050919050565b600082825260208201905092915050565b600082825260208201905092915050565b600082825260208201905092915050565b6000612c1a82612ceb565b9150612c2583612ceb565b9250827fffffffffffffffffffffffffffffffffffffffffffffffffffffffffffffffff03821115612c5a57612c59612de3565b5b828201905092915050565b6000612c7082612ccb565b9050919050565b6000612c8282612ccb565b9050919050565b60008115159050919050565b60007fffffffff0000000000000000000000000000000000000000000000000000000082169050919050565b6000819050919050565b600073ffffffffffffffffffffffffffffffffffffffff82169050919050565b6000819050919050565b82818337600083830152505050565b60005b83811015612d22578082015181840152602081019050612d07565b83811115612d31576000848401525b50505050565b60006002820490506001821680612d4f57607f821691505b60208210811415612d6357612d62612e12565b5b50919050565b612d7282612e92565b810181811067ffffffffffffffff82111715612d9157612d90612e41565b5b80604052505050565b6000612da582612ceb565b91507fffffffffffffffffffffffffffffffffffffffffffffffffffffffffffffffff821415612dd857612dd7612de3565b5b600182019050919050565b7f4e487b7100000000000000000000000000000000000000000000000000000000600052601160045260246000fd5b7f4e487b7100000000000000000000000000000000000000000000000000000000600052602260045260246000fd5b7f4e487b7100000000000000000000000000000000000000000000000000000000600052604160045260246000fd5b600060033d1115612e8f5760046000803e612e8c600051612ea3565b90505b90565b6000601f19601f8301169050919050565b60008160e01c9050919050565b7f455243313135353a207472616e7366657220746f206e6f6e204552433131353560008201527f526563656976657220696d706c656d656e746572000000000000000000000000602082015250565b7f455243313135353a204552433131353552656365697665722072656a6563746560008201527f6420746f6b656e73000000000000000000000000000000000000000000000000602082015250565b7f455243313135353a2062616c616e636520717565727920666f7220746865207a60008201527f65726f2061646472657373000000000000000000000000000000000000000000602082015250565b7f53616c65206e6f74207965742073746172746564212100000000000000000000600082015250565b7f455243313135353a2063616c6c6572206973206e6f74206f776e6572206e6f7260008201527f20617070726f7665640000000000000000000000000000000000000000000000602082015250565b7f50726963656420626f6f6b20737570706c79206c696d6974207265616368656460008201527f2121000000000000000000000000000000000000000000000000000000000000602082015250565b7f4f6e6c792074686520617574686f722069732070726976696c61676564212100600082015250565b7f455243313135353a207472616e7366657220746f20746865207a65726f20616460008201527f6472657373000000000000000000000000000000000000000000000000000000602082015250565b7f455243313135353a207472616e736665722063616c6c6572206973206e6f742060008201527f6f776e6572206e6f7220617070726f7665640000000000000000000000000000602082015250565b7f455243313135353a20696e73756666696369656e742062616c616e636520666f60008201527f72207472616e7366657200000000000000000000000000000000000000000000602082015250565b7f496e76616c696420737570706c79206c696d6974210000000000000000000000600082015250565b7f455243313135353a2073657474696e6720617070726f76616c2073746174757360008201527f20666f722073656c660000000000000000000000000000000000000000000000602082015250565b7f556e617574686f72697a65642072657175657374210000000000000000000000600082015250565b7f455243313135353a206163636f756e747320616e6420696473206c656e67746860008201527f206d69736d617463680000000000000000000000000000000000000000000000602082015250565b7f455243313135353a2069647320616e6420616d6f756e7473206c656e6774682060008201527f6d69736d61746368000000000000000000000000000000000000000000000000602082015250565b7f455243313135353a206d696e7420746f20746865207a65726f2061646472657360008201527f7300000000000000000000000000000000000000000000000000000000000000602082015250565b7f5265656e7472616e637947756172643a207265656e7472616e742063616c6c00600082015250565b600060443d1015613341576133c4565b613349612b0b565b60043d036004823e80513d602482011167ffffffffffffffff821117156133715750506133c4565b808201805167ffffffffffffffff81111561338f57505050506133c4565b80602083010160043d0385018111156133ac5750505050506133c4565b6133bb82602001850186612d69565b82955050505050505b90565b6133d081612c65565b81146133db57600080fd5b50565b6133e781612c89565b81146133f257600080fd5b50565b6133fe81612c95565b811461340957600080fd5b50565b61341581612cc1565b811461342057600080fd5b50565b61342c81612ceb565b811461343757600080fd5b5056fea26469706673582212201d6c6b4713f1e6a9392c05379190170ab84f90b85ccc17602a65059a208b57d064736f6c63430008040033",
  "linkReferences": {},
  "deployedLinkReferences": {}
}