{
  "_format": "hh-sol-artifact-1",
  "contractName": "eBookDonator",
  "sourceName": "contracts/eBookDonator.sol",
  "abi": [
    {
      "inputs": [],
      "stateMutability": "nonpayable",
      "type": "constructor"
    },
    {
      "inputs": [],
      "name": "getChainID",
      "outputs": [
        {
          "internalType": "uint256",
          "name": "id",
          "type": "uint256"
        }
      ],
      "stateMutability": "view",
      "type": "function"
    },
    {
      "inputs": [
        {
          "internalType": "address",
          "name": "publisheraddress",
          "type": "address"
        },
        {
          "internalType": "address",
          "name": "student",
          "type": "address"
        },
        {
          "components": [
            {
              "internalType": "uint256",
              "name": "bookID",
              "type": "uint256"
            },
            {
              "internalType": "address",
              "name": "studentAddress",
              "type": "address"
            },
            {
              "internalType": "uint256",
              "name": "price",
              "type": "uint256"
            },
            {
              "internalType": "bytes",
              "name": "signature",
              "type": "bytes"
            }
          ],
          "internalType": "struct eBookDonator.eBookVoucher",
          "name": "voucher",
          "type": "tuple"
        }
      ],
      "name": "redeem",
      "outputs": [
        {
          "internalType": "uint256",
          "name": "",
          "type": "uint256"
        }
      ],
      "stateMutability": "payable",
      "type": "function"
    }
  ],
  "bytecode": "0x6101206040523480156200001257600080fd5b506040518060400160405280600d81526020017f45426f6f6b2d566f7563686572000000000000000000000000000000000000008152506040518060400160405280600181526020017f3100000000000000000000000000000000000000000000000000000000000000815250600160008190555060008280519060200120905060008280519060200120905060007f8b73c3c69bb8fe3d512ecc4cf759cc79239f7b179b0ffacaa9a75d522b39400f90508260c081815250508160e081815250504660a08181525050620000ef8184846200010a60201b60201c565b6080818152505080610100818152505050505050506200021e565b600083838346306040516020016200012795949392919062000179565b6040516020818303038152906040528051906020012090509392505050565b6200015181620001d6565b82525050565b6200016281620001ea565b82525050565b620001738162000214565b82525050565b600060a08201905062000190600083018862000157565b6200019f602083018762000157565b620001ae604083018662000157565b620001bd606083018562000168565b620001cc608083018462000146565b9695505050505050565b6000620001e382620001f4565b9050919050565b6000819050919050565b600073ffffffffffffffffffffffffffffffffffffffff82169050919050565b6000819050919050565b60805160a05160c05160e051610100516113b66200026360003960006109490152600061098b0152600061096a015260006108f60152600061091e01526113b66000f3fe6080604052600436106100295760003560e01c8063564b81ef1461002e578063c0c5450214610059575b600080fd5b34801561003a57600080fd5b50610043610089565b6040516100509190611038565b60405180910390f35b610073600480360381019061006e9190610c14565b610091565b6040516100809190611038565b60405180910390f35b600046905090565b6000600260005414156100d9576040517f08c379a00000000000000000000000000000000000000000000000000000000081526004016100d090611018565b60405180910390fd5b6002600081905550600084905060006100f1846103f3565b905060008273ffffffffffffffffffffffffffffffffffffffff1663a5faa1256040518163ffffffff1660e01b815260040160206040518083038186803b15801561013b57600080fd5b505afa15801561014f573d6000803e3d6000fd5b505050506040513d601f19601f820116820180604052508101906101739190610beb565b90508173ffffffffffffffffffffffffffffffffffffffff168173ffffffffffffffffffffffffffffffffffffffff16146101e3576040517f08c379a00000000000000000000000000000000000000000000000000000000081526004016101da90610ff8565b60405180910390fd5b8573ffffffffffffffffffffffffffffffffffffffff1685602001602081019061020d9190610bc2565b73ffffffffffffffffffffffffffffffffffffffff1614610263576040517f08c379a000000000000000000000000000000000000000000000000000000000815260040161025a90610f98565b60405180910390fd5b84604001353410156102aa576040517f08c379a00000000000000000000000000000000000000000000000000000000081526004016102a190610fd8565b60405180910390fd5b8073ffffffffffffffffffffffffffffffffffffffff166108fc86604001359081150290604051600060405180830381858888f193505050501580156102f4573d6000803e3d6000fd5b508273ffffffffffffffffffffffffffffffffffffffff1663107002648660200160208101906103249190610bc2565b6040518263ffffffff1660e01b81526004016103409190610e40565b600060405180830381600087803b15801561035a57600080fd5b505af115801561036e573d6000803e3d6000fd5b505050508460200160208101906103859190610bc2565b73ffffffffffffffffffffffffffffffffffffffff166108fc8660400135346103ae91906110c6565b9081150290604051600060405180830381858888f193505050501580156103d9573d6000803e3d6000fd5b508460000135935050505060016000819055509392505050565b6000806103ff83610465565b905061045d818480606001906104159190611053565b8080601f016020809104026020016040519081016040528093929190818152602001838380828437600081840152601f19601f820116905080830192505050505050506104dd565b915050919050565b60006104d67f69926d81035830c590c7a43f59035974cff9889035dec824fe1f0e65572e9f0083600001358460200160208101906104a39190610bc2565b85604001356040516020016104bb9493929190610eae565b60405160208183030381529060405280519060200120610504565b9050919050565b60008060006104ec858561051e565b915091506104f9816105a1565b819250505092915050565b60006105176105116108f2565b836109b5565b9050919050565b6000806041835114156105605760008060006020860151925060408601519150606086015160001a9050610554878285856109e8565b9450945050505061059a565b604083511415610591576000806020850151915060408501519050610586868383610af5565b93509350505061059a565b60006002915091505b9250929050565b600060048111156105db577f4e487b7100000000000000000000000000000000000000000000000000000000600052602160045260246000fd5b816004811115610614577f4e487b7100000000000000000000000000000000000000000000000000000000600052602160045260246000fd5b141561061f576108ef565b60016004811115610659577f4e487b7100000000000000000000000000000000000000000000000000000000600052602160045260246000fd5b816004811115610692577f4e487b7100000000000000000000000000000000000000000000000000000000600052602160045260246000fd5b14156106d3576040517f08c379a00000000000000000000000000000000000000000000000000000000081526004016106ca90610f38565b60405180910390fd5b6002600481111561070d577f4e487b7100000000000000000000000000000000000000000000000000000000600052602160045260246000fd5b816004811115610746577f4e487b7100000000000000000000000000000000000000000000000000000000600052602160045260246000fd5b1415610787576040517f08c379a000000000000000000000000000000000000000000000000000000000815260040161077e90610f58565b60405180910390fd5b600360048111156107c1577f4e487b7100000000000000000000000000000000000000000000000000000000600052602160045260246000fd5b8160048111156107fa577f4e487b7100000000000000000000000000000000000000000000000000000000600052602160045260246000fd5b141561083b576040517f08c379a000000000000000000000000000000000000000000000000000000000815260040161083290610f78565b60405180910390fd5b600480811115610874577f4e487b7100000000000000000000000000000000000000000000000000000000600052602160045260246000fd5b8160048111156108ad577f4e487b7100000000000000000000000000000000000000000000000000000000600052602160045260246000fd5b14156108ee576040517f08c379a00000000000000000000000000000000000000000000000000000000081526004016108e590610fb8565b60405180910390fd5b5b50565b60007f0000000000000000000000000000000000000000000000000000000000000000461415610944577f000000000000000000000000000000000000000000000000000000000000000090506109b2565b6109af7f00000000000000000000000000000000000000000000000000000000000000007f00000000000000000000000000000000000000000000000000000000000000007f0000000000000000000000000000000000000000000000000000000000000000610b43565b90505b90565b600082826040516020016109ca929190610e09565b60405160208183030381529060405280519060200120905092915050565b6000807f7fffffffffffffffffffffffffffffff5d576e7357a4501ddfe92f46681b20a08360001c1115610a23576000600391509150610aec565b601b8560ff1614158015610a3b5750601c8560ff1614155b15610a4d576000600491509150610aec565b600060018787878760405160008152602001604052604051610a729493929190610ef3565b6020604051602081039080840390855afa158015610a94573d6000803e3d6000fd5b505050602060405103519050600073ffffffffffffffffffffffffffffffffffffffff168173ffffffffffffffffffffffffffffffffffffffff161415610ae357600060019250925050610aec565b80600092509250505b94509492505050565b6000806000807f7fffffffffffffffffffffffffffffffffffffffffffffffffffffffffffffff85169150601b8560ff1c019050610b35878288856109e8565b935093505050935093915050565b60008383834630604051602001610b5e959493929190610e5b565b6040516020818303038152906040528051906020012090509392505050565b600081359050610b8c81611369565b92915050565b600081519050610ba181611369565b92915050565b600060808284031215610bb957600080fd5b81905092915050565b600060208284031215610bd457600080fd5b6000610be284828501610b7d565b91505092915050565b600060208284031215610bfd57600080fd5b6000610c0b84828501610b92565b91505092915050565b600080600060608486031215610c2957600080fd5b6000610c3786828701610b7d565b9350506020610c4886828701610b7d565b925050604084013567ffffffffffffffff811115610c6557600080fd5b610c7186828701610ba7565b9150509250925092565b610c84816110fa565b82525050565b610c938161110c565b82525050565b610caa610ca58261110c565b61114d565b82525050565b6000610cbd6018836110aa565b9150610cc882611186565b602082019050919050565b6000610ce0601f836110aa565b9150610ceb826111af565b602082019050919050565b6000610d036002836110bb565b9150610d0e826111d8565b600282019050919050565b6000610d266022836110aa565b9150610d3182611201565b604082019050919050565b6000610d49601f836110aa565b9150610d5482611250565b602082019050919050565b6000610d6c6022836110aa565b9150610d7782611279565b604082019050919050565b6000610d8f601c836110aa565b9150610d9a826112c8565b602082019050919050565b6000610db26021836110aa565b9150610dbd826112f1565b604082019050919050565b6000610dd5601f836110aa565b9150610de082611340565b602082019050919050565b610df481611136565b82525050565b610e0381611140565b82525050565b6000610e1482610cf6565b9150610e208285610c99565b602082019150610e308284610c99565b6020820191508190509392505050565b6000602082019050610e556000830184610c7b565b92915050565b600060a082019050610e706000830188610c8a565b610e7d6020830187610c8a565b610e8a6040830186610c8a565b610e976060830185610deb565b610ea46080830184610c7b565b9695505050505050565b6000608082019050610ec36000830187610c8a565b610ed06020830186610deb565b610edd6040830185610c7b565b610eea6060830184610deb565b95945050505050565b6000608082019050610f086000830187610c8a565b610f156020830186610dfa565b610f226040830185610c8a565b610f2f6060830184610c8a565b95945050505050565b60006020820190508181036000830152610f5181610cb0565b9050919050565b60006020820190508181036000830152610f7181610cd3565b9050919050565b60006020820190508181036000830152610f9181610d19565b9050919050565b60006020820190508181036000830152610fb181610d3c565b9050919050565b60006020820190508181036000830152610fd181610d5f565b9050919050565b60006020820190508181036000830152610ff181610d82565b9050919050565b6000602082019050818103600083015261101181610da5565b9050919050565b6000602082019050818103600083015261103181610dc8565b9050919050565b600060208201905061104d6000830184610deb565b92915050565b6000808335600160200384360303811261106c57600080fd5b80840192508235915067ffffffffffffffff82111561108a57600080fd5b6020830192506001820236038313156110a257600080fd5b509250929050565b600082825260208201905092915050565b600081905092915050565b60006110d182611136565b91506110dc83611136565b9250828210156110ef576110ee611157565b5b828203905092915050565b600061110582611116565b9050919050565b6000819050919050565b600073ffffffffffffffffffffffffffffffffffffffff82169050919050565b6000819050919050565b600060ff82169050919050565b6000819050919050565b7f4e487b7100000000000000000000000000000000000000000000000000000000600052601160045260246000fd5b7f45434453413a20696e76616c6964207369676e61747572650000000000000000600082015250565b7f45434453413a20696e76616c6964207369676e6174757265206c656e67746800600082015250565b7f1901000000000000000000000000000000000000000000000000000000000000600082015250565b7f45434453413a20696e76616c6964207369676e6174757265202773272076616c60008201527f7565000000000000000000000000000000000000000000000000000000000000602082015250565b7f556e617574686f72697365642072656465706d74696f6e207265717565737400600082015250565b7f45434453413a20696e76616c6964207369676e6174757265202776272076616c60008201527f7565000000000000000000000000000000000000000000000000000000000000602082015250565b7f496e73756666696369656e742066756e647320746f2072656465656d00000000600082015250565b7f5369676e617475726520696e76616c6964206f7220756e617574686f72697a6560008201527f6400000000000000000000000000000000000000000000000000000000000000602082015250565b7f5265656e7472616e637947756172643a207265656e7472616e742063616c6c00600082015250565b611372816110fa565b811461137d57600080fd5b5056fea264697066735822122058311492ee8d6d9940b902452204dd54b47c92f1b47a7366d694c630cba9654864736f6c63430008040033",
  "linkReferences": {},
  "deployedLinkReferences": {}
}