{
  "_format": "hh-sol-artifact-1",
  "contractName": "StorageStructures",
  "sourceName": "contracts/StorageStructures.sol",
  "abi": [
    {
      "inputs": [
        {
          "internalType": "address",
          "name": "donatorAddress",
          "type": "address"
        },
        {
          "internalType": "address",
          "name": "renterAddress",
          "type": "address"
        }
      ],
      "stateMutability": "nonpayable",
      "type": "constructor"
    },
    {
      "inputs": [
        {
          "internalType": "uint256",
          "name": "bookID",
          "type": "uint256"
        },
        {
          "internalType": "address",
          "name": "reader",
          "type": "address"
        }
      ],
      "name": "VoucherAlreadyReedeemed",
      "type": "error"
    },
    {
      "inputs": [
        {
          "components": [
            {
              "internalType": "string",
              "name": "metadataURI",
              "type": "string"
            },
            {
              "internalType": "address",
              "name": "author",
              "type": "address"
            },
            {
              "internalType": "uint256",
              "name": "price",
              "type": "uint256"
            },
            {
              "internalType": "address",
              "name": "publisherAddress",
              "type": "address"
            }
          ],
          "internalType": "struct StorageStructures.Book",
          "name": "book",
          "type": "tuple"
        }
      ],
      "name": "addBook",
      "outputs": [],
      "stateMutability": "nonpayable",
      "type": "function"
    },
    {
      "inputs": [
        {
          "internalType": "uint256",
          "name": "bookID",
          "type": "uint256"
        },
        {
          "internalType": "address",
          "name": "buyer",
          "type": "address"
        }
      ],
      "name": "addBuyer",
      "outputs": [],
      "stateMutability": "nonpayable",
      "type": "function"
    },
    {
      "inputs": [
        {
          "internalType": "uint256",
          "name": "bookID",
          "type": "uint256"
        },
        {
          "internalType": "address",
          "name": "renter",
          "type": "address"
        },
        {
          "internalType": "address",
          "name": "rentee",
          "type": "address"
        }
      ],
      "name": "addRentedBookToShelf",
      "outputs": [],
      "stateMutability": "nonpayable",
      "type": "function"
    },
    {
      "inputs": [
        {
          "internalType": "uint256",
          "name": "bookID",
          "type": "uint256"
        },
        {
          "internalType": "address",
          "name": "rentor",
          "type": "address"
        }
      ],
      "name": "addRentor",
      "outputs": [],
      "stateMutability": "nonpayable",
      "type": "function"
    },
    {
      "inputs": [
        {
          "internalType": "uint256",
          "name": "bookID",
          "type": "uint256"
        },
        {
          "internalType": "address",
          "name": "seller",
          "type": "address"
        }
      ],
      "name": "addSeller",
      "outputs": [],
      "stateMutability": "nonpayable",
      "type": "function"
    },
    {
      "inputs": [
        {
          "internalType": "address",
          "name": "author",
          "type": "address"
        },
        {
          "internalType": "uint256",
          "name": "bookID",
          "type": "uint256"
        },
        {
          "internalType": "uint256",
          "name": "revenue",
          "type": "uint256"
        }
      ],
      "name": "addToAuthorsRevenue",
      "outputs": [],
      "stateMutability": "nonpayable",
      "type": "function"
    },
    {
      "inputs": [
        {
          "internalType": "address",
          "name": "author",
          "type": "address"
        },
        {
          "internalType": "uint256",
          "name": "bookID",
          "type": "uint256"
        }
      ],
      "name": "addToDesk",
      "outputs": [],
      "stateMutability": "nonpayable",
      "type": "function"
    },
    {
      "inputs": [
        {
          "internalType": "address",
          "name": "_reader",
          "type": "address"
        },
        {
          "components": [
            {
              "internalType": "uint256",
              "name": "bookID",
              "type": "uint256"
            },
            {
              "internalType": "uint256",
              "name": "eBookID",
              "type": "uint256"
            },
            {
              "internalType": "uint256",
              "name": "price",
              "type": "uint256"
            },
            {
              "internalType": "string",
              "name": "metadataURI",
              "type": "string"
            },
            {
              "internalType": "address",
              "name": "owner",
              "type": "address"
            },
            {
              "internalType": "enum StorageStructures.eBookStatus",
              "name": "status",
              "type": "uint8"
            }
          ],
          "internalType": "struct StorageStructures.eBook",
          "name": "_eBook",
          "type": "tuple"
        }
      ],
      "name": "addToShelf",
      "outputs": [],
      "stateMutability": "nonpayable",
      "type": "function"
    },
    {
      "inputs": [
        {
          "internalType": "address",
          "name": "buyer",
          "type": "address"
        },
        {
          "internalType": "address",
          "name": "seller",
          "type": "address"
        },
        {
          "internalType": "uint256",
          "name": "bookID",
          "type": "uint256"
        }
      ],
      "name": "executeOrder",
      "outputs": [],
      "stateMutability": "nonpayable",
      "type": "function"
    },
    {
      "inputs": [
        {
          "internalType": "address",
          "name": "author",
          "type": "address"
        }
      ],
      "name": "getAuthorsDesk",
      "outputs": [
        {
          "components": [
            {
              "internalType": "string",
              "name": "metadataURI",
              "type": "string"
            },
            {
              "internalType": "address",
              "name": "author",
              "type": "address"
            },
            {
              "internalType": "uint256",
              "name": "price",
              "type": "uint256"
            },
            {
              "internalType": "address",
              "name": "publisherAddress",
              "type": "address"
            }
          ],
          "internalType": "struct StorageStructures.Book[]",
          "name": "",
          "type": "tuple[]"
        }
      ],
      "stateMutability": "view",
      "type": "function"
    },
    {
      "inputs": [
        {
          "internalType": "uint256",
          "name": "bookID",
          "type": "uint256"
        }
      ],
      "name": "getAuthorsRevenueForBook",
      "outputs": [
        {
          "internalType": "uint256",
          "name": "",
          "type": "uint256"
        }
      ],
      "stateMutability": "view",
      "type": "function"
    },
    {
      "inputs": [],
      "name": "getBestSellers",
      "outputs": [
        {
          "components": [
            {
              "internalType": "string",
              "name": "metadataURI",
              "type": "string"
            },
            {
              "internalType": "address",
              "name": "author",
              "type": "address"
            },
            {
              "internalType": "uint256",
              "name": "price",
              "type": "uint256"
            },
            {
              "internalType": "address",
              "name": "publisherAddress",
              "type": "address"
            }
          ],
          "internalType": "struct StorageStructures.Book[]",
          "name": "",
          "type": "tuple[]"
        }
      ],
      "stateMutability": "view",
      "type": "function"
    },
    {
      "inputs": [
        {
          "internalType": "uint256",
          "name": "bookID",
          "type": "uint256"
        }
      ],
      "name": "getBook",
      "outputs": [
        {
          "components": [
            {
              "internalType": "string",
              "name": "metadataURI",
              "type": "string"
            },
            {
              "internalType": "address",
              "name": "author",
              "type": "address"
            },
            {
              "internalType": "uint256",
              "name": "price",
              "type": "uint256"
            },
            {
              "internalType": "address",
              "name": "publisherAddress",
              "type": "address"
            }
          ],
          "internalType": "struct StorageStructures.Book",
          "name": "",
          "type": "tuple"
        }
      ],
      "stateMutability": "view",
      "type": "function"
    },
    {
      "inputs": [
        {
          "internalType": "uint256",
          "name": "bookID",
          "type": "uint256"
        }
      ],
      "name": "getBookPrice",
      "outputs": [
        {
          "internalType": "uint256",
          "name": "",
          "type": "uint256"
        }
      ],
      "stateMutability": "view",
      "type": "function"
    },
    {
      "inputs": [
        {
          "internalType": "uint256",
          "name": "bookID",
          "type": "uint256"
        }
      ],
      "name": "getBookURI",
      "outputs": [
        {
          "internalType": "string",
          "name": "bookURI",
          "type": "string"
        }
      ],
      "stateMutability": "view",
      "type": "function"
    },
    {
      "inputs": [
        {
          "internalType": "uint256",
          "name": "bookID",
          "type": "uint256"
        }
      ],
      "name": "getBuyersCount",
      "outputs": [
        {
          "internalType": "uint256",
          "name": "",
          "type": "uint256"
        }
      ],
      "stateMutability": "view",
      "type": "function"
    },
    {
      "inputs": [],
      "name": "getDonatorAddress",
      "outputs": [
        {
          "internalType": "address",
          "name": "",
          "type": "address"
        }
      ],
      "stateMutability": "view",
      "type": "function"
    },
    {
      "inputs": [
        {
          "internalType": "uint256",
          "name": "bookID",
          "type": "uint256"
        }
      ],
      "name": "getFreeBooksPrinted",
      "outputs": [
        {
          "internalType": "uint256",
          "name": "",
          "type": "uint256"
        }
      ],
      "stateMutability": "view",
      "type": "function"
    },
    {
      "inputs": [
        {
          "internalType": "uint256",
          "name": "bookID",
          "type": "uint256"
        }
      ],
      "name": "getPricedBooksPrinted",
      "outputs": [
        {
          "internalType": "uint256",
          "name": "",
          "type": "uint256"
        }
      ],
      "stateMutability": "view",
      "type": "function"
    },
    {
      "inputs": [
        {
          "internalType": "uint256",
          "name": "bookID",
          "type": "uint256"
        }
      ],
      "name": "getPublisherAddress",
      "outputs": [
        {
          "internalType": "address",
          "name": "",
          "type": "address"
        }
      ],
      "stateMutability": "view",
      "type": "function"
    },
    {
      "inputs": [
        {
          "internalType": "address",
          "name": "_reader",
          "type": "address"
        }
      ],
      "name": "getReadersShelf",
      "outputs": [
        {
          "components": [
            {
              "internalType": "uint256",
              "name": "bookID",
              "type": "uint256"
            },
            {
              "internalType": "uint256",
              "name": "eBookID",
              "type": "uint256"
            },
            {
              "internalType": "uint256",
              "name": "price",
              "type": "uint256"
            },
            {
              "internalType": "string",
              "name": "metadataURI",
              "type": "string"
            },
            {
              "internalType": "address",
              "name": "owner",
              "type": "address"
            },
            {
              "internalType": "enum StorageStructures.eBookStatus",
              "name": "status",
              "type": "uint8"
            }
          ],
          "internalType": "struct StorageStructures.eBook[]",
          "name": "",
          "type": "tuple[]"
        }
      ],
      "stateMutability": "view",
      "type": "function"
    },
    {
      "inputs": [],
      "name": "getRecentLaunches",
      "outputs": [
        {
          "components": [
            {
              "internalType": "string",
              "name": "metadataURI",
              "type": "string"
            },
            {
              "internalType": "address",
              "name": "author",
              "type": "address"
            },
            {
              "internalType": "uint256",
              "name": "price",
              "type": "uint256"
            },
            {
              "internalType": "address",
              "name": "publisherAddress",
              "type": "address"
            }
          ],
          "internalType": "struct StorageStructures.Book[]",
          "name": "",
          "type": "tuple[]"
        }
      ],
      "stateMutability": "view",
      "type": "function"
    },
    {
      "inputs": [],
      "name": "getRenterAddress",
      "outputs": [
        {
          "internalType": "address",
          "name": "",
          "type": "address"
        }
      ],
      "stateMutability": "view",
      "type": "function"
    },
    {
      "inputs": [
        {
          "internalType": "uint256",
          "name": "bookID",
          "type": "uint256"
        }
      ],
      "name": "getRentorsCount",
      "outputs": [
        {
          "internalType": "uint256",
          "name": "",
          "type": "uint256"
        }
      ],
      "stateMutability": "view",
      "type": "function"
    },
    {
      "inputs": [
        {
          "internalType": "uint256",
          "name": "bookID",
          "type": "uint256"
        }
      ],
      "name": "getSellersCount",
      "outputs": [
        {
          "internalType": "uint256",
          "name": "",
          "type": "uint256"
        }
      ],
      "stateMutability": "view",
      "type": "function"
    },
    {
      "inputs": [
        {
          "internalType": "uint256",
          "name": "bookID",
          "type": "uint256"
        }
      ],
      "name": "matchBuyer",
      "outputs": [
        {
          "internalType": "address",
          "name": "",
          "type": "address"
        }
      ],
      "stateMutability": "nonpayable",
      "type": "function"
    },
    {
      "inputs": [
        {
          "internalType": "uint256",
          "name": "bookID",
          "type": "uint256"
        }
      ],
      "name": "matchRentor",
      "outputs": [
        {
          "internalType": "address",
          "name": "",
          "type": "address"
        }
      ],
      "stateMutability": "nonpayable",
      "type": "function"
    },
    {
      "inputs": [
        {
          "internalType": "uint256",
          "name": "bookID",
          "type": "uint256"
        }
      ],
      "name": "matchSeller",
      "outputs": [
        {
          "internalType": "address",
          "name": "",
          "type": "address"
        }
      ],
      "stateMutability": "nonpayable",
      "type": "function"
    },
    {
      "inputs": [
        {
          "components": [
            {
              "internalType": "uint256",
              "name": "bookID",
              "type": "uint256"
            },
            {
              "internalType": "address",
              "name": "studentAddress",
              "type": "address"
            },
            {
              "internalType": "uint256",
              "name": "price",
              "type": "uint256"
            },
            {
              "internalType": "bytes",
              "name": "signature",
              "type": "bytes"
            }
          ],
          "internalType": "struct eBookDonator.eBookVoucher",
          "name": "voucher",
          "type": "tuple"
        }
      ],
      "name": "redeemStudentBookVoucher",
      "outputs": [],
      "stateMutability": "nonpayable",
      "type": "function"
    },
    {
      "inputs": [
        {
          "internalType": "uint256",
          "name": "bookID",
          "type": "uint256"
        },
        {
          "internalType": "address",
          "name": "renter",
          "type": "address"
        },
        {
          "internalType": "address",
          "name": "rentee",
          "type": "address"
        }
      ],
      "name": "removeRentedBookFromShelf",
      "outputs": [],
      "stateMutability": "nonpayable",
      "type": "function"
    },
    {
      "inputs": [
        {
          "internalType": "uint256",
          "name": "bookID",
          "type": "uint256"
        },
        {
          "internalType": "address",
          "name": "rentor",
          "type": "address"
        }
      ],
      "name": "removeRentor",
      "outputs": [],
      "stateMutability": "nonpayable",
      "type": "function"
    },
    {
      "inputs": [
        {
          "internalType": "uint256",
          "name": "bookID",
          "type": "uint256"
        }
      ],
      "name": "updateBestSellers",
      "outputs": [],
      "stateMutability": "nonpayable",
      "type": "function"
    }
  ],
  "bytecode": "0x60806040523480156200001157600080fd5b5060405162005f2838038062005f28833981810160405281019062000037919062000169565b81601160006101000a81548173ffffffffffffffffffffffffffffffffffffffff021916908373ffffffffffffffffffffffffffffffffffffffff16021790555080601260006101000a81548173ffffffffffffffffffffffffffffffffffffffff021916908373ffffffffffffffffffffffffffffffffffffffff160217905550601260009054906101000a900473ffffffffffffffffffffffffffffffffffffffff1673ffffffffffffffffffffffffffffffffffffffff1663cefe3f81306040518263ffffffff1660e01b8152600401620001169190620001bb565b600060405180830381600087803b1580156200013157600080fd5b505af115801562000146573d6000803e3d6000fd5b50505050505062000226565b60008151905062000163816200020c565b92915050565b600080604083850312156200017d57600080fd5b60006200018d8582860162000152565b9250506020620001a08582860162000152565b9150509250929050565b620001b581620001d8565b82525050565b6000602082019050620001d26000830184620001aa565b92915050565b6000620001e582620001ec565b9050919050565b600073ffffffffffffffffffffffffffffffffffffffff82169050919050565b6200021781620001d8565b81146200022357600080fd5b50565b615cf280620002366000396000f3fe608060405234801561001057600080fd5b50600436106101f05760003560e01c80639b0e957c1161010f578063e44dc2fa116100a2578063f9a2989111610071578063f9a2989114610625578063faf4bfd414610641578063fc4f79491461065d578063fe0e55de1461068d576101f0565b8063e44dc2fa1461058d578063ed4a28a9146105bd578063ef2a1747146105ed578063f5dc2ae214610609576101f0565b8063c010c21e116100de578063c010c21e146104f3578063e0ff5b8b14610523578063e1439c6b14610553578063e23aceec14610571576101f0565b80639b0e957c146104595780639e909f90146104895780639f4fd383146104a5578063a191efb4146104d5576101f0565b8063547e08b21161018757806376e7ae551161015657806376e7ae55146103bf578063898f8b1a146103db5780638d0928941461040b5780638f6686fc14610429576101f0565b8063547e08b2146103275780635beaaa4a1461034357806365b6d27e1461035f5780636c230eef1461038f576101f0565b806329b0ac61116101c357806329b0ac611461027957806338bf024f146102a957806341eed922146102c75780634f91b350146102f7576101f0565b80630b197fbf146101f55780630b3ebada146102115780630d18bc3b1461024157806328c4ed001461025d575b600080fd5b61020f600480360381019061020a91906150c1565b6106a9565b005b61022b60048036038101906102269190615033565b610b74565b604051610238919061577a565b60405180910390f35b61025b60048036038101906102569190614ea4565b610bce565b005b61027760048036038101906102729190614e50565b610c38565b005b610293600480360381019061028e9190615033565b610d7f565b6040516102a091906155d2565b60405180910390f35b6102b161106b565b6040516102be9190615692565b60405180910390f35b6102e160048036038101906102dc9190615033565b6114c7565b6040516102ee919061577a565b60405180910390f35b610311600480360381019061030c9190615033565b6115ea565b60405161031e919061577a565b60405180910390f35b610341600480360381019061033c9190615033565b61160a565b005b61035d60048036038101906103589190614ff2565b61197a565b005b61037960048036038101906103749190614dd8565b611cf7565b60405161038691906156b4565b60405180910390f35b6103a960048036038101906103a49190615033565b611f22565b6040516103b6919061577a565b60405180910390f35b6103d960048036038101906103d49190615085565b611fbd565b005b6103f560048036038101906103f09190615033565b6123c8565b60405161040291906156d6565b60405180910390f35b610413612837565b60405161042091906155d2565b60405180910390f35b610443600480360381019061043e9190615033565b612861565b60405161045091906155d2565b60405180910390f35b610473600480360381019061046e9190615033565b612aba565b60405161048091906155d2565b60405180910390f35b6104a3600480360381019061049e91906150c1565b612d13565b005b6104bf60048036038101906104ba9190614dd8565b613271565b6040516104cc9190615692565b60405180910390f35b6104dd613507565b6040516104ea9190615692565b60405180910390f35b61050d60048036038101906105089190615033565b613705565b60405161051a919061577a565b60405180910390f35b61053d60048036038101906105389190615033565b613828565b60405161054a9190615758565b60405180910390f35b61055b6139de565b60405161056891906155d2565b60405180910390f35b61058b60048036038101906105869190615085565b613a08565b005b6105a760048036038101906105a29190615033565b613a8c565b6040516105b4919061577a565b60405180910390f35b6105d760048036038101906105d29190615033565b613aac565b6040516105e491906155d2565b60405180910390f35b61060760048036038101906106029190615085565b613b47565b005b610623600480360381019061061e9190614ee0565b613bbf565b005b61063f600480360381019061063a9190614f70565b613c74565b005b61065b60048036038101906106569190615085565b613d5a565b005b61067760048036038101906106729190615033565b613e70565b604051610684919061577a565b60405180910390f35b6106a760048036038101906106a29190614e01565b613e90565b005b60005b600360008373ffffffffffffffffffffffffffffffffffffffff1673ffffffffffffffffffffffffffffffffffffffff168152602001908152602001600020805490508110156109fd5783600360008473ffffffffffffffffffffffffffffffffffffffff1673ffffffffffffffffffffffffffffffffffffffff168152602001908152602001600020828154811061076e577f4e487b7100000000000000000000000000000000000000000000000000000000600052603260045260246000fd5b90600052602060002090600502016000015414156109ea57600360008373ffffffffffffffffffffffffffffffffffffffff1673ffffffffffffffffffffffffffffffffffffffff1681526020019081526020016000206001600360008573ffffffffffffffffffffffffffffffffffffffff1673ffffffffffffffffffffffffffffffffffffffff16815260200190815260200160002080549050610814919061599f565b8154811061084b577f4e487b7100000000000000000000000000000000000000000000000000000000600052603260045260246000fd5b9060005260206000209060050201600360008473ffffffffffffffffffffffffffffffffffffffff1673ffffffffffffffffffffffffffffffffffffffff16815260200190815260200160002082815481106108d0577f4e487b7100000000000000000000000000000000000000000000000000000000600052603260045260246000fd5b9060005260206000209060050201600082015481600001556001820154816001015560028201548160020155600382018160030190805461091090615a76565b61091b9291906148f4565b506004820160009054906101000a900473ffffffffffffffffffffffffffffffffffffffff168160040160006101000a81548173ffffffffffffffffffffffffffffffffffffffff021916908373ffffffffffffffffffffffffffffffffffffffff1602179055506004820160149054906101000a900460ff168160040160146101000a81548160ff021916908360058111156109e1577f4e487b7100000000000000000000000000000000000000000000000000000000600052602160045260246000fd5b02179055509050505b80806109f590615ad9565b9150506106ac565b50600360008273ffffffffffffffffffffffffffffffffffffffff1673ffffffffffffffffffffffffffffffffffffffff168152602001908152602001600020805480610a73577f4e487b7100000000000000000000000000000000000000000000000000000000600052603160045260246000fd5b600190038181906000526020600020906005020160008082016000905560018201600090556002820160009055600382016000610ab09190614981565b6004820160006101000a81549073ffffffffffffffffffffffffffffffffffffffff02191690556004820160146101000a81549060ff021916905550509055610afb82846003614727565b60066000848152602001908152602001600020829080600181540180825580915050600190039060005260206000200160009091909190916101000a81548173ffffffffffffffffffffffffffffffffffffffff021916908373ffffffffffffffffffffffffffffffffffffffff160217905550505050565b6000600260003373ffffffffffffffffffffffffffffffffffffffff1673ffffffffffffffffffffffffffffffffffffffff1681526020019081526020016000206000838152602001908152602001600020549050919050565b600160008373ffffffffffffffffffffffffffffffffffffffff1673ffffffffffffffffffffffffffffffffffffffff1681526020019081526020016000208190806001815401808255809150506001900390600052602060002001600090919091909150555050565b600360008373ffffffffffffffffffffffffffffffffffffffff1673ffffffffffffffffffffffffffffffffffffffff1681526020019081526020016000208190806001815401808255809150506001900390600052602060002090600502016000909190919091506000820151816000015560208201518160010155604082015181600201556060820151816003019080519060200190610cdb9291906149c1565b5060808201518160040160006101000a81548173ffffffffffffffffffffffffffffffffffffffff021916908373ffffffffffffffffffffffffffffffffffffffff16021790555060a08201518160040160146101000a81548160ff02191690836005811115610d74577f4e487b7100000000000000000000000000000000000000000000000000000000600052602160045260246000fd5b021790555050505050565b600033601260009054906101000a900473ffffffffffffffffffffffffffffffffffffffff1673ffffffffffffffffffffffffffffffffffffffff168173ffffffffffffffffffffffffffffffffffffffff1614610e12576040517f08c379a0000000000000000000000000000000000000000000000000000000008152600401610e0990615738565b60405180910390fd5b600060066000858152602001908152602001600020600081548110610e60577f4e487b7100000000000000000000000000000000000000000000000000000000600052603260045260246000fd5b9060005260206000200160009054906101000a900473ffffffffffffffffffffffffffffffffffffffff16905060005b60016006600087815260200190815260200160002080549050610eb3919061599f565b811015610fe25760066000868152602001908152602001600020600182610eda9190615949565b81548110610f11577f4e487b7100000000000000000000000000000000000000000000000000000000600052603260045260246000fd5b9060005260206000200160009054906101000a900473ffffffffffffffffffffffffffffffffffffffff16600660008781526020019081526020016000208281548110610f87577f4e487b7100000000000000000000000000000000000000000000000000000000600052603260045260246000fd5b9060005260206000200160006101000a81548173ffffffffffffffffffffffffffffffffffffffff021916908373ffffffffffffffffffffffffffffffffffffffff1602179055508080610fda90615ad9565b915050610e90565b506006600085815260200190815260200160002080548061102c577f4e487b7100000000000000000000000000000000000000000000000000000000600052603160045260246000fd5b6001900381819060005260206000200160006101000a81549073ffffffffffffffffffffffffffffffffffffffff021916905590558092505050919050565b6060600f6000805490501115611321576000600f67ffffffffffffffff8111156110be577f4e487b7100000000000000000000000000000000000000000000000000000000600052604160045260246000fd5b6040519080825280602002602001820160405280156110f757816020015b6110e4614a47565b8152602001906001900390816110dc5790505b5090506000600190505b600f81116113175760008160008054905061111c919061599f565b81548110611153577f4e487b7100000000000000000000000000000000000000000000000000000000600052603260045260246000fd5b906000526020600020906004020160405180608001604052908160008201805461117c90615a76565b80601f01602080910402602001604051908101604052809291908181526020018280546111a890615a76565b80156111f55780601f106111ca576101008083540402835291602001916111f5565b820191906000526020600020905b8154815290600101906020018083116111d857829003601f168201915b505050505081526020016001820160009054906101000a900473ffffffffffffffffffffffffffffffffffffffff1673ffffffffffffffffffffffffffffffffffffffff1673ffffffffffffffffffffffffffffffffffffffff168152602001600282015481526020016003820160009054906101000a900473ffffffffffffffffffffffffffffffffffffffff1673ffffffffffffffffffffffffffffffffffffffff1673ffffffffffffffffffffffffffffffffffffffff1681525050826001836112c2919061599f565b815181106112f9577f4e487b7100000000000000000000000000000000000000000000000000000000600052603260045260246000fd5b6020026020010181905250808061130f90615ad9565b915050611101565b50809150506114c4565b6000805480602002602001604051908101604052809291908181526020016000905b828210156114bd578382906000526020600020906004020160405180608001604052908160008201805461137690615a76565b80601f01602080910402602001604051908101604052809291908181526020018280546113a290615a76565b80156113ef5780601f106113c4576101008083540402835291602001916113ef565b820191906000526020600020905b8154815290600101906020018083116113d257829003601f168201915b505050505081526020016001820160009054906101000a900473ffffffffffffffffffffffffffffffffffffffff1673ffffffffffffffffffffffffffffffffffffffff1673ffffffffffffffffffffffffffffffffffffffff168152602001600282015481526020016003820160009054906101000a900473ffffffffffffffffffffffffffffffffffffffff1673ffffffffffffffffffffffffffffffffffffffff1673ffffffffffffffffffffffffffffffffffffffff168152505081526020019060010190611343565b5050505090505b90565b6000803073ffffffffffffffffffffffffffffffffffffffff1663e0ff5b8b846040518263ffffffff1660e01b8152600401611503919061577a565b60006040518083038186803b15801561151b57600080fd5b505afa15801561152f573d6000803e3d6000fd5b505050506040513d6000823e3d601f19601f820116820180604052508101906115589190614fb1565b90506000816060015190508073ffffffffffffffffffffffffffffffffffffffff1663758a8a766040518163ffffffff1660e01b815260040160206040518083038186803b1580156115a957600080fd5b505afa1580156115bd573d6000803e3d6000fd5b505050506040513d601f19601f820116820180604052508101906115e1919061505c565b92505050919050565b600060066000838152602001908152602001600020805490509050919050565b60003073ffffffffffffffffffffffffffffffffffffffff166341eed922836040518263ffffffff1660e01b8152600401611645919061577a565b60206040518083038186803b15801561165d57600080fd5b505afa158015611671573d6000803e3d6000fd5b505050506040513d601f19601f82011682018060405250810190611695919061505c565b9050600081116116da576040517f08c379a00000000000000000000000000000000000000000000000000000000081526004016116d1906156f8565b60405180910390fd5b60005b600a811015611975576000600782600a8110611722577f4e487b7100000000000000000000000000000000000000000000000000000000600052603260045260246000fd5b0154141561176f5782600782600a8110611765577f4e487b7100000000000000000000000000000000000000000000000000000000600052603260045260246000fd5b0181905550611975565b82600782600a81106117aa577f4e487b7100000000000000000000000000000000000000000000000000000000600052603260045260246000fd5b0154141561196257813073ffffffffffffffffffffffffffffffffffffffff166341eed92260076001856117de919061599f565b600a8110611815577f4e487b7100000000000000000000000000000000000000000000000000000000600052603260045260246000fd5b01546040518263ffffffff1660e01b8152600401611833919061577a565b60206040518083038186803b15801561184b57600080fd5b505afa15801561185f573d6000803e3d6000fd5b505050506040513d601f19601f82011682018060405250810190611883919061505c565b101561195d576007600182611898919061599f565b600a81106118cf577f4e487b7100000000000000000000000000000000000000000000000000000000600052603260045260246000fd5b0154600782600a811061190b577f4e487b7100000000000000000000000000000000000000000000000000000000600052603260045260246000fd5b0181905550826007600183611920919061599f565b600a8110611957577f4e487b7100000000000000000000000000000000000000000000000000000000600052603260045260246000fd5b01819055505b611975565b808061196d90615ad9565b9150506116dd565b505050565b60003073ffffffffffffffffffffffffffffffffffffffff1663e0ff5b8b83600001356040518263ffffffff1660e01b81526004016119b9919061577a565b60006040518083038186803b1580156119d157600080fd5b505afa1580156119e5573d6000803e3d6000fd5b505050506040513d6000823e3d601f19601f82011682018060405250810190611a0e9190614fb1565b905060005b600360003373ffffffffffffffffffffffffffffffffffffffff1673ffffffffffffffffffffffffffffffffffffffff16815260200190815260200160002080549050811015611b4757600360003373ffffffffffffffffffffffffffffffffffffffff1673ffffffffffffffffffffffffffffffffffffffff1681526020019081526020016000208181548110611ad4577f4e487b7100000000000000000000000000000000000000000000000000000000600052603260045260246000fd5b90600052602060002090600502016000015483600001351415611b34578260000135336040517f41fae187000000000000000000000000000000000000000000000000000000008152600401611b2b929190615795565b60405180910390fd5b8080611b3f90615ad9565b915050611a13565b50601160009054906101000a900473ffffffffffffffffffffffffffffffffffffffff1673ffffffffffffffffffffffffffffffffffffffff1663c0c54502826060015133856040518463ffffffff1660e01b8152600401611bab939291906155ed565b602060405180830381600087803b158015611bc557600080fd5b505af1158015611bd9573d6000803e3d6000fd5b505050506040513d601f19601f82011682018060405250810190611bfd919061505c565b503073ffffffffffffffffffffffffffffffffffffffff166328c4ed00336040518060c00160405280866000013581526020016000815260200186604001358152602001856000015181526020013373ffffffffffffffffffffffffffffffffffffffff16815260200160026005811115611ca1577f4e487b7100000000000000000000000000000000000000000000000000000000600052602160045260246000fd5b8152506040518363ffffffff1660e01b8152600401611cc1929190615662565b600060405180830381600087803b158015611cdb57600080fd5b505af1158015611cef573d6000803e3d6000fd5b505050505050565b6060600360008373ffffffffffffffffffffffffffffffffffffffff1673ffffffffffffffffffffffffffffffffffffffff168152602001908152602001600020805480602002602001604051908101604052809291908181526020016000905b82821015611f1757838290600052602060002090600502016040518060c0016040529081600082015481526020016001820154815260200160028201548152602001600382018054611da990615a76565b80601f0160208091040260200160405190810160405280929190818152602001828054611dd590615a76565b8015611e225780601f10611df757610100808354040283529160200191611e22565b820191906000526020600020905b815481529060010190602001808311611e0557829003601f168201915b505050505081526020016004820160009054906101000a900473ffffffffffffffffffffffffffffffffffffffff1673ffffffffffffffffffffffffffffffffffffffff1673ffffffffffffffffffffffffffffffffffffffff1681526020016004820160149054906101000a900460ff166005811115611ecc577f4e487b7100000000000000000000000000000000000000000000000000000000600052602160045260246000fd5b6005811115611f04577f4e487b7100000000000000000000000000000000000000000000000000000000600052602160045260246000fd5b8152505081526020019060010190611d58565b505050509050919050565b60003073ffffffffffffffffffffffffffffffffffffffff1663e0ff5b8b836040518263ffffffff1660e01b8152600401611f5d919061577a565b60006040518083038186803b158015611f7557600080fd5b505afa158015611f89573d6000803e3d6000fd5b505050506040513d6000823e3d601f19601f82011682018060405250810190611fb29190614fb1565b604001519050919050565b33601260009054906101000a900473ffffffffffffffffffffffffffffffffffffffff1673ffffffffffffffffffffffffffffffffffffffff168173ffffffffffffffffffffffffffffffffffffffff161461204e576040517f08c379a000000000000000000000000000000000000000000000000000000000815260040161204590615738565b60405180910390fd5b6000600660008581526020019081526020016000208054905014156120f057600660008481526020019081526020016000208054806120b6577f4e487b7100000000000000000000000000000000000000000000000000000000600052603160045260246000fd5b6001900381819060005260206000200160006101000a81549073ffffffffffffffffffffffffffffffffffffffff021916905590556123b7565b60005b60016006600086815260200190815260200160002080549050612116919061599f565b8110156123b5578273ffffffffffffffffffffffffffffffffffffffff1660066000868152602001908152602001600020828154811061217f577f4e487b7100000000000000000000000000000000000000000000000000000000600052603260045260246000fd5b9060005260206000200160009054906101000a900473ffffffffffffffffffffffffffffffffffffffff1673ffffffffffffffffffffffffffffffffffffffff1614156123a25760008190505b600160066000878152602001908152602001600020805490506121ef919061599f565b81101561231e57600660008681526020019081526020016000206001826122169190615949565b8154811061224d577f4e487b7100000000000000000000000000000000000000000000000000000000600052603260045260246000fd5b9060005260206000200160009054906101000a900473ffffffffffffffffffffffffffffffffffffffff166006600087815260200190815260200160002082815481106122c3577f4e487b7100000000000000000000000000000000000000000000000000000000600052603260045260246000fd5b9060005260206000200160006101000a81548173ffffffffffffffffffffffffffffffffffffffff021916908373ffffffffffffffffffffffffffffffffffffffff160217905550808061231690615ad9565b9150506121cc565b5060066000858152602001908152602001600020805480612368577f4e487b7100000000000000000000000000000000000000000000000000000000600052603160045260246000fd5b6001900381819060005260206000200160006101000a81549073ffffffffffffffffffffffffffffffffffffffff021916905590556123b5565b80806123ad90615ad9565b9150506120f3565b505b6123c382846000614727565b505050565b60606000600360003373ffffffffffffffffffffffffffffffffffffffff1673ffffffffffffffffffffffffffffffffffffffff168152602001908152602001600020805480602002602001604051908101604052809291908181526020016000905b828210156125ea57838290600052602060002090600502016040518060c001604052908160008201548152602001600182015481526020016002820154815260200160038201805461247c90615a76565b80601f01602080910402602001604051908101604052809291908181526020018280546124a890615a76565b80156124f55780601f106124ca576101008083540402835291602001916124f5565b820191906000526020600020905b8154815290600101906020018083116124d857829003601f168201915b505050505081526020016004820160009054906101000a900473ffffffffffffffffffffffffffffffffffffffff1673ffffffffffffffffffffffffffffffffffffffff1673ffffffffffffffffffffffffffffffffffffffff1681526020016004820160149054906101000a900460ff16600581111561259f577f4e487b7100000000000000000000000000000000000000000000000000000000600052602160045260246000fd5b60058111156125d7577f4e487b7100000000000000000000000000000000000000000000000000000000600052602160045260246000fd5b815250508152602001906001019061242b565b50505050905060005b81518110156128305783828281518110612636577f4e487b7100000000000000000000000000000000000000000000000000000000600052603260045260246000fd5b602002602001015160000151141561281d573373ffffffffffffffffffffffffffffffffffffffff16828281518110612698577f4e487b7100000000000000000000000000000000000000000000000000000000600052603260045260246000fd5b60200260200101516080015173ffffffffffffffffffffffffffffffffffffffff16146126fa576040517f08c379a00000000000000000000000000000000000000000000000000000000081526004016126f190615718565b60405180910390fd5b60003073ffffffffffffffffffffffffffffffffffffffff1663e0ff5b8b866040518263ffffffff1660e01b8152600401612735919061577a565b60006040518083038186803b15801561274d57600080fd5b505afa158015612761573d6000803e3d6000fd5b505050506040513d6000823e3d601f19601f8201168201806040525081019061278a9190614fb1565b90506000816060015190508073ffffffffffffffffffffffffffffffffffffffff1663145b5d1e6040518163ffffffff1660e01b815260040160006040518083038186803b1580156127db57600080fd5b505afa1580156127ef573d6000803e3d6000fd5b505050506040513d6000823e3d601f19601f820116820180604052508101906128189190614f2f565b945050505b808061282890615ad9565b9150506125f3565b5050919050565b6000601160009054906101000a900473ffffffffffffffffffffffffffffffffffffffff16905090565b600080600460008481526020019081526020016000206000815481106128b0577f4e487b7100000000000000000000000000000000000000000000000000000000600052603260045260246000fd5b9060005260206000200160009054906101000a900473ffffffffffffffffffffffffffffffffffffffff16905060005b60016004600086815260200190815260200160002080549050612903919061599f565b811015612a32576004600085815260200190815260200160002060018261292a9190615949565b81548110612961577f4e487b7100000000000000000000000000000000000000000000000000000000600052603260045260246000fd5b9060005260206000200160009054906101000a900473ffffffffffffffffffffffffffffffffffffffff166004600086815260200190815260200160002082815481106129d7577f4e487b7100000000000000000000000000000000000000000000000000000000600052603260045260246000fd5b9060005260206000200160006101000a81548173ffffffffffffffffffffffffffffffffffffffff021916908373ffffffffffffffffffffffffffffffffffffffff1602179055508080612a2a90615ad9565b9150506128e0565b5060046000848152602001908152602001600020805480612a7c577f4e487b7100000000000000000000000000000000000000000000000000000000600052603160045260246000fd5b6001900381819060005260206000200160006101000a81549073ffffffffffffffffffffffffffffffffffffffff0219169055905580915050919050565b60008060056000848152602001908152602001600020600081548110612b09577f4e487b7100000000000000000000000000000000000000000000000000000000600052603260045260246000fd5b9060005260206000200160009054906101000a900473ffffffffffffffffffffffffffffffffffffffff16905060005b60016005600086815260200190815260200160002080549050612b5c919061599f565b811015612c8b5760056000858152602001908152602001600020600182612b839190615949565b81548110612bba577f4e487b7100000000000000000000000000000000000000000000000000000000600052603260045260246000fd5b9060005260206000200160009054906101000a900473ffffffffffffffffffffffffffffffffffffffff16600560008681526020019081526020016000208281548110612c30577f4e487b7100000000000000000000000000000000000000000000000000000000600052603260045260246000fd5b9060005260206000200160006101000a81548173ffffffffffffffffffffffffffffffffffffffff021916908373ffffffffffffffffffffffffffffffffffffffff1602179055508080612c8390615ad9565b915050612b39565b5060056000848152602001908152602001600020805480612cd5577f4e487b7100000000000000000000000000000000000000000000000000000000600052603160045260246000fd5b6001900381819060005260206000200160006101000a81549073ffffffffffffffffffffffffffffffffffffffff0219169055905580915050919050565b6000600360008473ffffffffffffffffffffffffffffffffffffffff1673ffffffffffffffffffffffffffffffffffffffff168152602001908152602001600020805480602002602001604051908101604052809291908181526020016000905b82821015612f3357838290600052602060002090600502016040518060c0016040529081600082015481526020016001820154815260200160028201548152602001600382018054612dc590615a76565b80601f0160208091040260200160405190810160405280929190818152602001828054612df190615a76565b8015612e3e5780601f10612e1357610100808354040283529160200191612e3e565b820191906000526020600020905b815481529060010190602001808311612e2157829003601f168201915b505050505081526020016004820160009054906101000a900473ffffffffffffffffffffffffffffffffffffffff1673ffffffffffffffffffffffffffffffffffffffff1673ffffffffffffffffffffffffffffffffffffffff1681526020016004820160149054906101000a900460ff166005811115612ee8577f4e487b7100000000000000000000000000000000000000000000000000000000600052602160045260246000fd5b6005811115612f20577f4e487b7100000000000000000000000000000000000000000000000000000000600052602160045260246000fd5b8152505081526020019060010190612d74565b50505050905060005b815181101561326a5784828281518110612f7f577f4e487b7100000000000000000000000000000000000000000000000000000000600052603260045260246000fd5b60200260200101516000015114156132575760036005811115612fcb577f4e487b7100000000000000000000000000000000000000000000000000000000600052602160045260246000fd5b828281518110613004577f4e487b7100000000000000000000000000000000000000000000000000000000600052603260045260246000fd5b602002602001015160a001516005811115613048577f4e487b7100000000000000000000000000000000000000000000000000000000600052602160045260246000fd5b1415613256576000828281518110613089577f4e487b7100000000000000000000000000000000000000000000000000000000600052603260045260246000fd5b6020026020010151905060058160a0019060058111156130d2577f4e487b7100000000000000000000000000000000000000000000000000000000600052602160045260246000fd5b9081600581111561310c577f4e487b7100000000000000000000000000000000000000000000000000000000600052602160045260246000fd5b815250503073ffffffffffffffffffffffffffffffffffffffff166328c4ed0085836040518363ffffffff1660e01b815260040161314b929190615662565b600060405180830381600087803b15801561316557600080fd5b505af1158015613179573d6000803e3d6000fd5b505050506004600360008773ffffffffffffffffffffffffffffffffffffffff1673ffffffffffffffffffffffffffffffffffffffff16815260200190815260200160002083815481106131f6577f4e487b7100000000000000000000000000000000000000000000000000000000600052603260045260246000fd5b906000526020600020906005020160040160146101000a81548160ff0219169083600581111561324f577f4e487b7100000000000000000000000000000000000000000000000000000000600052602160045260246000fd5b0217905550505b5b808061326290615ad9565b915050612f3c565b5050505050565b60606000600160008473ffffffffffffffffffffffffffffffffffffffff1673ffffffffffffffffffffffffffffffffffffffff1681526020019081526020016000208054905067ffffffffffffffff8111156132f7577f4e487b7100000000000000000000000000000000000000000000000000000000600052604160045260246000fd5b60405190808252806020026020018201604052801561333057816020015b61331d614a47565b8152602001906001900390816133155790505b5090506000600160008573ffffffffffffffffffffffffffffffffffffffff1673ffffffffffffffffffffffffffffffffffffffff1681526020019081526020016000208054806020026020016040519081016040528092919081815260200182805480156133be57602002820191906000526020600020905b8154815260200190600101908083116133aa575b5050505050905060005b81518110156134fc5760003073ffffffffffffffffffffffffffffffffffffffff1663e0ff5b8b848481518110613428577f4e487b7100000000000000000000000000000000000000000000000000000000600052603260045260246000fd5b60200260200101516040518263ffffffff1660e01b815260040161344c919061577a565b60006040518083038186803b15801561346457600080fd5b505afa158015613478573d6000803e3d6000fd5b505050506040513d6000823e3d601f19601f820116820180604052508101906134a19190614fb1565b9050808483815181106134dd577f4e487b7100000000000000000000000000000000000000000000000000000000600052603260045260246000fd5b60200260200101819052505080806134f490615ad9565b9150506133c8565b508192505050919050565b60606000600a67ffffffffffffffff81111561354c577f4e487b7100000000000000000000000000000000000000000000000000000000600052604160045260246000fd5b60405190808252806020026020018201604052801561358557816020015b613572614a47565b81526020019060019003908161356a5790505b50905060005b600a8110156136fd576000600782600a81106135d0577f4e487b7100000000000000000000000000000000000000000000000000000000600052603260045260246000fd5b015414156135dd576136fd565b3073ffffffffffffffffffffffffffffffffffffffff1663e0ff5b8b600783600a8110613633577f4e487b7100000000000000000000000000000000000000000000000000000000600052603260045260246000fd5b01546040518263ffffffff1660e01b8152600401613651919061577a565b60006040518083038186803b15801561366957600080fd5b505afa15801561367d573d6000803e3d6000fd5b505050506040513d6000823e3d601f19601f820116820180604052508101906136a69190614fb1565b8282815181106136df577f4e487b7100000000000000000000000000000000000000000000000000000000600052603260045260246000fd5b602002602001018190525080806136f590615ad9565b91505061358b565b508091505090565b6000803073ffffffffffffffffffffffffffffffffffffffff1663e0ff5b8b846040518263ffffffff1660e01b8152600401613741919061577a565b60006040518083038186803b15801561375957600080fd5b505afa15801561376d573d6000803e3d6000fd5b505050506040513d6000823e3d601f19601f820116820180604052508101906137969190614fb1565b90506000816060015190508073ffffffffffffffffffffffffffffffffffffffff16634cb6f12e6040518163ffffffff1660e01b815260040160206040518083038186803b1580156137e757600080fd5b505afa1580156137fb573d6000803e3d6000fd5b505050506040513d601f19601f8201168201806040525081019061381f919061505c565b92505050919050565b613830614a47565b600060018361383f919061599f565b81548110613876577f4e487b7100000000000000000000000000000000000000000000000000000000600052603260045260246000fd5b906000526020600020906004020160405180608001604052908160008201805461389f90615a76565b80601f01602080910402602001604051908101604052809291908181526020018280546138cb90615a76565b80156139185780601f106138ed57610100808354040283529160200191613918565b820191906000526020600020905b8154815290600101906020018083116138fb57829003601f168201915b505050505081526020016001820160009054906101000a900473ffffffffffffffffffffffffffffffffffffffff1673ffffffffffffffffffffffffffffffffffffffff1673ffffffffffffffffffffffffffffffffffffffff168152602001600282015481526020016003820160009054906101000a900473ffffffffffffffffffffffffffffffffffffffff1673ffffffffffffffffffffffffffffffffffffffff1673ffffffffffffffffffffffffffffffffffffffff16815250509050919050565b6000601260009054906101000a900473ffffffffffffffffffffffffffffffffffffffff16905090565b613a1481836001614727565b60056000838152602001908152602001600020819080600181540180825580915050600190039060005260206000200160009091909190916101000a81548173ffffffffffffffffffffffffffffffffffffffff021916908373ffffffffffffffffffffffffffffffffffffffff1602179055505050565b600060046000838152602001908152602001600020805490509050919050565b60003073ffffffffffffffffffffffffffffffffffffffff1663e0ff5b8b836040518263ffffffff1660e01b8152600401613ae7919061577a565b60006040518083038186803b158015613aff57600080fd5b505afa158015613b13573d6000803e3d6000fd5b505050506040513d6000823e3d601f19601f82011682018060405250810190613b3c9190614fb1565b606001519050919050565b60046000838152602001908152602001600020819080600181540180825580915050600190039060005260206000200160009091909190916101000a81548173ffffffffffffffffffffffffffffffffffffffff021916908373ffffffffffffffffffffffffffffffffffffffff1602179055505050565b80600260008573ffffffffffffffffffffffffffffffffffffffff1673ffffffffffffffffffffffffffffffffffffffff168152602001908152602001600020600084815260200190815260200160002054613c1b9190615949565b600260008573ffffffffffffffffffffffffffffffffffffffff1673ffffffffffffffffffffffffffffffffffffffff168152602001908152602001600020600084815260200190815260200160002081905550505050565b60008190806001815401808255809150506001900390600052602060002090600402016000909190919091506000820151816000019080519060200190613cbc9291906149c1565b5060208201518160010160006101000a81548173ffffffffffffffffffffffffffffffffffffffff021916908373ffffffffffffffffffffffffffffffffffffffff1602179055506040820151816002015560608201518160030160006101000a81548173ffffffffffffffffffffffffffffffffffffffff021916908373ffffffffffffffffffffffffffffffffffffffff160217905550505050565b33601260009054906101000a900473ffffffffffffffffffffffffffffffffffffffff1673ffffffffffffffffffffffffffffffffffffffff168173ffffffffffffffffffffffffffffffffffffffff1614613deb576040517f08c379a0000000000000000000000000000000000000000000000000000000008152600401613de290615738565b60405180910390fd5b60066000848152602001908152602001600020829080600181540180825580915050600190039060005260206000200160009091909190916101000a81548173ffffffffffffffffffffffffffffffffffffffff021916908373ffffffffffffffffffffffffffffffffffffffff160217905550613e6b82846003614727565b505050565b600060056000838152602001908152602001600020805490509050919050565b60005b600360008473ffffffffffffffffffffffffffffffffffffffff1673ffffffffffffffffffffffffffffffffffffffff168152602001908152602001600020805490508110156147215781600360008573ffffffffffffffffffffffffffffffffffffffff1673ffffffffffffffffffffffffffffffffffffffff1681526020019081526020016000208281548110613f55577f4e487b7100000000000000000000000000000000000000000000000000000000600052603260045260246000fd5b906000526020600020906005020160000154141561470e576000600360008573ffffffffffffffffffffffffffffffffffffffff1673ffffffffffffffffffffffffffffffffffffffff1681526020019081526020016000208281548110613fe6577f4e487b7100000000000000000000000000000000000000000000000000000000600052603260045260246000fd5b90600052602060002090600502016040518060c001604052908160008201548152602001600182015481526020016002820154815260200160038201805461402d90615a76565b80601f016020809104026020016040519081016040528092919081815260200182805461405990615a76565b80156140a65780601f1061407b576101008083540402835291602001916140a6565b820191906000526020600020905b81548152906001019060200180831161408957829003601f168201915b505050505081526020016004820160009054906101000a900473ffffffffffffffffffffffffffffffffffffffff1673ffffffffffffffffffffffffffffffffffffffff1673ffffffffffffffffffffffffffffffffffffffff1681526020016004820160149054906101000a900460ff166005811115614150577f4e487b7100000000000000000000000000000000000000000000000000000000600052602160045260246000fd5b6005811115614188577f4e487b7100000000000000000000000000000000000000000000000000000000600052602160045260246000fd5b81525050905084816080019073ffffffffffffffffffffffffffffffffffffffff16908173ffffffffffffffffffffffffffffffffffffffff168152505060008160a001906005811115614205577f4e487b7100000000000000000000000000000000000000000000000000000000600052602160045260246000fd5b9081600581111561423f577f4e487b7100000000000000000000000000000000000000000000000000000000600052602160045260246000fd5b81525050600360008573ffffffffffffffffffffffffffffffffffffffff1673ffffffffffffffffffffffffffffffffffffffff1681526020019081526020016000206001600360008773ffffffffffffffffffffffffffffffffffffffff1673ffffffffffffffffffffffffffffffffffffffff168152602001908152602001600020805490506142d1919061599f565b81548110614308577f4e487b7100000000000000000000000000000000000000000000000000000000600052603260045260246000fd5b9060005260206000209060050201600360008673ffffffffffffffffffffffffffffffffffffffff1673ffffffffffffffffffffffffffffffffffffffff168152602001908152602001600020838154811061438d577f4e487b7100000000000000000000000000000000000000000000000000000000600052603260045260246000fd5b906000526020600020906005020160008201548160000155600182015481600101556002820154816002015560038201816003019080546143cd90615a76565b6143d89291906148f4565b506004820160009054906101000a900473ffffffffffffffffffffffffffffffffffffffff168160040160006101000a81548173ffffffffffffffffffffffffffffffffffffffff021916908373ffffffffffffffffffffffffffffffffffffffff1602179055506004820160149054906101000a900460ff168160040160146101000a81548160ff0219169083600581111561449e577f4e487b7100000000000000000000000000000000000000000000000000000000600052602160045260246000fd5b0217905550905050600360008573ffffffffffffffffffffffffffffffffffffffff1673ffffffffffffffffffffffffffffffffffffffff16815260200190815260200160002080548061451b577f4e487b7100000000000000000000000000000000000000000000000000000000600052603160045260246000fd5b6001900381819060005260206000209060050201600080820160009055600182016000905560028201600090556003820160006145589190614981565b6004820160006101000a81549073ffffffffffffffffffffffffffffffffffffffff02191690556004820160146101000a81549060ff0219169055505090553073ffffffffffffffffffffffffffffffffffffffff1663e0ff5b8b846040518263ffffffff1660e01b81526004016145d0919061577a565b60006040518083038186803b1580156145e857600080fd5b505afa1580156145fc573d6000803e3d6000fd5b505050506040513d6000823e3d601f19601f820116820180604052508101906146259190614fb1565b6060015173ffffffffffffffffffffffffffffffffffffffff1663beabacc8858784602001516040518463ffffffff1660e01b81526004016146699392919061562b565b600060405180830381600087803b15801561468357600080fd5b505af1158015614697573d6000803e3d6000fd5b505050503073ffffffffffffffffffffffffffffffffffffffff166328c4ed0086836040518363ffffffff1660e01b81526004016146d6929190615662565b600060405180830381600087803b1580156146f057600080fd5b505af1158015614704573d6000803e3d6000fd5b5050505050614721565b808061471990615ad9565b915050613e93565b50505050565b60005b600360008573ffffffffffffffffffffffffffffffffffffffff1673ffffffffffffffffffffffffffffffffffffffff168152602001908152602001600020805490508110156148ee5782600360008673ffffffffffffffffffffffffffffffffffffffff1673ffffffffffffffffffffffffffffffffffffffff16815260200190815260200160002082815481106147ec577f4e487b7100000000000000000000000000000000000000000000000000000000600052603260045260246000fd5b90600052602060002090600502016000015414156148db5781600360008673ffffffffffffffffffffffffffffffffffffffff1673ffffffffffffffffffffffffffffffffffffffff168152602001908152602001600020828154811061487c577f4e487b7100000000000000000000000000000000000000000000000000000000600052603260045260246000fd5b906000526020600020906005020160040160146101000a81548160ff021916908360058111156148d5577f4e487b7100000000000000000000000000000000000000000000000000000000600052602160045260246000fd5b02179055505b80806148e690615ad9565b91505061472a565b50505050565b82805461490090615a76565b90600052602060002090601f0160209004810192826149225760008555614970565b82601f106149335780548555614970565b8280016001018555821561497057600052602060002091601f016020900482015b8281111561496f578254825591600101919060010190614954565b5b50905061497d9190614a9b565b5090565b50805461498d90615a76565b6000825580601f1061499f57506149be565b601f0160209004906000526020600020908101906149bd9190614a9b565b5b50565b8280546149cd90615a76565b90600052602060002090601f0160209004810192826149ef5760008555614a36565b82601f10614a0857805160ff1916838001178555614a36565b82800160010185558215614a36579182015b82811115614a35578251825591602001919060010190614a1a565b5b509050614a439190614a9b565b5090565b604051806080016040528060608152602001600073ffffffffffffffffffffffffffffffffffffffff16815260200160008152602001600073ffffffffffffffffffffffffffffffffffffffff1681525090565b5b80821115614ab4576000816000905550600101614a9c565b5090565b6000614acb614ac6846157e3565b6157be565b905082815260208101848484011115614ae357600080fd5b614aee848285615a34565b509392505050565b6000614b09614b04846157e3565b6157be565b905082815260208101848484011115614b2157600080fd5b614b2c848285615a43565b509392505050565b600081359050614b4381615c7e565b92915050565b600081519050614b5881615c7e565b92915050565b600081359050614b6d81615c95565b92915050565b600082601f830112614b8457600080fd5b8135614b94848260208601614ab8565b91505092915050565b600082601f830112614bae57600080fd5b8151614bbe848260208601614af6565b91505092915050565b600060808284031215614bd957600080fd5b614be360806157be565b9050600082013567ffffffffffffffff811115614bff57600080fd5b614c0b84828501614b73565b6000830152506020614c1f84828501614b34565b6020830152506040614c3384828501614dae565b6040830152506060614c4784828501614b34565b60608301525092915050565b600060808284031215614c6557600080fd5b614c6f60806157be565b9050600082015167ffffffffffffffff811115614c8b57600080fd5b614c9784828501614b9d565b6000830152506020614cab84828501614b49565b6020830152506040614cbf84828501614dc3565b6040830152506060614cd384828501614b49565b60608301525092915050565b600060808284031215614cf157600080fd5b81905092915050565b600060c08284031215614d0c57600080fd5b614d1660c06157be565b90506000614d2684828501614dae565b6000830152506020614d3a84828501614dae565b6020830152506040614d4e84828501614dae565b604083015250606082013567ffffffffffffffff811115614d6e57600080fd5b614d7a84828501614b73565b6060830152506080614d8e84828501614b34565b60808301525060a0614da284828501614b5e565b60a08301525092915050565b600081359050614dbd81615ca5565b92915050565b600081519050614dd281615ca5565b92915050565b600060208284031215614dea57600080fd5b6000614df884828501614b34565b91505092915050565b600080600060608486031215614e1657600080fd5b6000614e2486828701614b34565b9350506020614e3586828701614b34565b9250506040614e4686828701614dae565b9150509250925092565b60008060408385031215614e6357600080fd5b6000614e7185828601614b34565b925050602083013567ffffffffffffffff811115614e8e57600080fd5b614e9a85828601614cfa565b9150509250929050565b60008060408385031215614eb757600080fd5b6000614ec585828601614b34565b9250506020614ed685828601614dae565b9150509250929050565b600080600060608486031215614ef557600080fd5b6000614f0386828701614b34565b9350506020614f1486828701614dae565b9250506040614f2586828701614dae565b9150509250925092565b600060208284031215614f4157600080fd5b600082015167ffffffffffffffff811115614f5b57600080fd5b614f6784828501614b9d565b91505092915050565b600060208284031215614f8257600080fd5b600082013567ffffffffffffffff811115614f9c57600080fd5b614fa884828501614bc7565b91505092915050565b600060208284031215614fc357600080fd5b600082015167ffffffffffffffff811115614fdd57600080fd5b614fe984828501614c53565b91505092915050565b60006020828403121561500457600080fd5b600082013567ffffffffffffffff81111561501e57600080fd5b61502a84828501614cdf565b91505092915050565b60006020828403121561504557600080fd5b600061505384828501614dae565b91505092915050565b60006020828403121561506e57600080fd5b600061507c84828501614dc3565b91505092915050565b6000806040838503121561509857600080fd5b60006150a685828601614dae565b92505060206150b785828601614b34565b9150509250929050565b6000806000606084860312156150d657600080fd5b60006150e486828701614dae565b93505060206150f586828701614b34565b925050604061510686828701614b34565b9150509250925092565b600061511c8383615357565b905092915050565b600061513083836154a2565b905092915050565b615141816159d3565b82525050565b615150816159d3565b82525050565b600061516182615834565b61516b818561586f565b93508360208202850161517d85615814565b8060005b858110156151b9578484038952815161519a8582615110565b94506151a583615855565b925060208a01995050600181019050615181565b50829750879550505050505092915050565b60006151d68261583f565b6151e08185615880565b9350836020820285016151f285615824565b8060005b8581101561522e578484038952815161520f8582615124565b945061521a83615862565b925060208a019950506001810190506151f6565b50829750879550505050505092915050565b600061524c8385615891565b9350615259838584615a34565b61526283615bde565b840190509392505050565b61527681615a22565b82525050565b60006152878261584a565b61529181856158a2565b93506152a1818560208601615a43565b6152aa81615bde565b840191505092915050565b60006152c08261584a565b6152ca81856158b3565b93506152da818560208601615a43565b6152e381615bde565b840191505092915050565b60006152fb6015836158b3565b915061530682615bef565b602082019050919050565b600061531e6020836158b3565b915061532982615c18565b602082019050919050565b60006153416015836158b3565b915061534c82615c41565b602082019050919050565b60006080830160008301518482036000860152615374828261527c565b91505060208301516153896020860182615138565b50604083015161539c60408601826155b4565b5060608301516153af6060860182615138565b508091505092915050565b600060808301600083015184820360008601526153d7828261527c565b91505060208301516153ec6020860182615138565b5060408301516153ff60408601826155b4565b5060608301516154126060860182615138565b508091505092915050565b6000608083016154306000840184615932565b61543d60008601826155b4565b5061544b60208401846158c4565b6154586020860182615138565b506154666040840184615932565b61547360408601826155b4565b5061548160608401846158db565b8583036060870152615494838284615240565b925050508091505092915050565b600060c0830160008301516154ba60008601826155b4565b5060208301516154cd60208601826155b4565b5060408301516154e060408601826155b4565b50606083015184820360608601526154f8828261527c565b915050608083015161550d6080860182615138565b5060a083015161552060a086018261526d565b508091505092915050565b600060c08301600083015161554360008601826155b4565b50602083015161555660208601826155b4565b50604083015161556960408601826155b4565b5060608301518482036060860152615581828261527c565b91505060808301516155966080860182615138565b5060a08301516155a960a086018261526d565b508091505092915050565b6155bd81615a18565b82525050565b6155cc81615a18565b82525050565b60006020820190506155e76000830184615147565b92915050565b60006060820190506156026000830186615147565b61560f6020830185615147565b8181036040830152615621818461541d565b9050949350505050565b60006060820190506156406000830186615147565b61564d6020830185615147565b61565a60408301846155c3565b949350505050565b60006040820190506156776000830185615147565b8181036020830152615689818461552b565b90509392505050565b600060208201905081810360008301526156ac8184615156565b905092915050565b600060208201905081810360008301526156ce81846151cb565b905092915050565b600060208201905081810360008301526156f081846152b5565b905092915050565b60006020820190508181036000830152615711816152ee565b9050919050565b6000602082019050818103600083015261573181615311565b9050919050565b6000602082019050818103600083015261575181615334565b9050919050565b6000602082019050818103600083015261577281846153ba565b905092915050565b600060208201905061578f60008301846155c3565b92915050565b60006040820190506157aa60008301856155c3565b6157b76020830184615147565b9392505050565b60006157c86157d9565b90506157d48282615aa8565b919050565b6000604051905090565b600067ffffffffffffffff8211156157fe576157fd615baf565b5b61580782615bde565b9050602081019050919050565b6000819050602082019050919050565b6000819050602082019050919050565b600081519050919050565b600081519050919050565b600081519050919050565b6000602082019050919050565b6000602082019050919050565b600082825260208201905092915050565b600082825260208201905092915050565b600082825260208201905092915050565b600082825260208201905092915050565b600082825260208201905092915050565b60006158d36020840184614b34565b905092915050565b600080833560016020038436030381126158f457600080fd5b83810192508235915060208301925067ffffffffffffffff82111561591857600080fd5b60018202360384131561592a57600080fd5b509250929050565b60006159416020840184614dae565b905092915050565b600061595482615a18565b915061595f83615a18565b9250827fffffffffffffffffffffffffffffffffffffffffffffffffffffffffffffffff0382111561599457615993615b22565b5b828201905092915050565b60006159aa82615a18565b91506159b583615a18565b9250828210156159c8576159c7615b22565b5b828203905092915050565b60006159de826159f8565b9050919050565b60008190506159f382615c6a565b919050565b600073ffffffffffffffffffffffffffffffffffffffff82169050919050565b6000819050919050565b6000615a2d826159e5565b9050919050565b82818337600083830152505050565b60005b83811015615a61578082015181840152602081019050615a46565b83811115615a70576000848401525b50505050565b60006002820490506001821680615a8e57607f821691505b60208210811415615aa257615aa1615b80565b5b50919050565b615ab182615bde565b810181811067ffffffffffffffff82111715615ad057615acf615baf565b5b80604052505050565b6000615ae482615a18565b91507fffffffffffffffffffffffffffffffffffffffffffffffffffffffffffffffff821415615b1757615b16615b22565b5b600182019050919050565b7f4e487b7100000000000000000000000000000000000000000000000000000000600052601160045260246000fd5b7f4e487b7100000000000000000000000000000000000000000000000000000000600052602160045260246000fd5b7f4e487b7100000000000000000000000000000000000000000000000000000000600052602260045260246000fd5b7f4e487b7100000000000000000000000000000000000000000000000000000000600052604160045260246000fd5b6000601f19601f8301169050919050565b7f496e76616c69642063616c6c2072657175657374210000000000000000000000600082015250565b7f4f6e6c79206f776e65722063616e206163636573732074686520626f6f6b2121600082015250565b7f556e617574686f72697a65642072657175657374210000000000000000000000600082015250565b60068110615c7b57615c7a615b51565b5b50565b615c87816159d3565b8114615c9257600080fd5b50565b60068110615ca257600080fd5b50565b615cae81615a18565b8114615cb957600080fd5b5056fea2646970667358221220abf3e16a9b0cffaab9b63feee5b197666e8184e401699698f4a12d61a4535c9964736f6c63430008040033",
  "linkReferences": {},
  "deployedLinkReferences": {}
}